{
  "_format": "hh-sol-artifact-1",
  "contractName": "FanForcePredictionDemo",
  "sourceName": "contracts/FanForcePredictionDemo.sol",
  "abi": [
    {
      "inputs": [
        {
          "internalType": "address",
          "name": "chzToken",
          "type": "address"
        }
      ],
      "stateMutability": "nonpayable",
      "type": "constructor"
    },
    {
      "inputs": [],
      "name": "ReentrancyGuardReentrantCall",
      "type": "error"
    },
    {
      "anonymous": false,
      "inputs": [
        {
          "indexed": true,
          "internalType": "uint256",
          "name": "matchId",
          "type": "uint256"
        },
        {
          "indexed": true,
          "internalType": "address",
          "name": "user",
          "type": "address"
        },
        {
          "indexed": false,
          "internalType": "uint8",
          "name": "team",
          "type": "uint8"
        },
        {
          "indexed": false,
          "internalType": "uint256",
          "name": "amount",
          "type": "uint256"
        }
      ],
      "name": "BetPlaced",
      "type": "event"
    },
    {
      "anonymous": false,
      "inputs": [
        {
          "indexed": true,
          "internalType": "address",
          "name": "admin",
          "type": "address"
        },
        {
          "indexed": false,
          "internalType": "uint256",
          "name": "amount",
          "type": "uint256"
        }
      ],
      "name": "EmergencyWithdraw",
      "type": "event"
    },
    {
      "anonymous": false,
      "inputs": [
        {
          "indexed": true,
          "internalType": "uint256",
          "name": "matchId",
          "type": "uint256"
        }
      ],
      "name": "MatchCreated",
      "type": "event"
    },
    {
      "anonymous": false,
      "inputs": [
        {
          "indexed": true,
          "internalType": "uint256",
          "name": "matchId",
          "type": "uint256"
        }
      ],
      "name": "MatchReset",
      "type": "event"
    },
    {
      "anonymous": false,
      "inputs": [
        {
          "indexed": true,
          "internalType": "uint256",
          "name": "matchId",
          "type": "uint256"
        },
        {
          "indexed": false,
          "internalType": "uint8",
          "name": "result",
          "type": "uint8"
        }
      ],
      "name": "MatchSettled",
      "type": "event"
    },
    {
      "anonymous": false,
      "inputs": [
        {
          "indexed": true,
          "internalType": "uint256",
          "name": "matchId",
          "type": "uint256"
        },
        {
          "indexed": true,
          "internalType": "address",
          "name": "user",
          "type": "address"
        },
        {
          "indexed": false,
          "internalType": "uint256",
          "name": "amount",
          "type": "uint256"
        }
      ],
      "name": "RewardClaimed",
      "type": "event"
    },
    {
      "anonymous": false,
      "inputs": [
        {
          "indexed": true,
          "internalType": "uint256",
          "name": "matchId",
          "type": "uint256"
        },
        {
          "indexed": false,
          "internalType": "uint256",
          "name": "amount",
          "type": "uint256"
        }
      ],
      "name": "RewardInjected",
      "type": "event"
    },
    {
      "inputs": [],
      "name": "ADMIN",
      "outputs": [
        {
          "internalType": "address",
          "name": "",
          "type": "address"
        }
      ],
      "stateMutability": "view",
      "type": "function"
    },
    {
      "inputs": [],
      "name": "CHZ",
      "outputs": [
        {
          "internalType": "contract IERC20",
          "name": "",
          "type": "address"
        }
      ],
      "stateMutability": "view",
      "type": "function"
    },
    {
      "inputs": [],
      "name": "LOSER_RATIO",
      "outputs": [
        {
          "internalType": "uint256",
          "name": "",
          "type": "uint256"
        }
      ],
      "stateMutability": "view",
      "type": "function"
    },
    {
      "inputs": [],
      "name": "MIN_BET",
      "outputs": [
        {
          "internalType": "uint256",
          "name": "",
          "type": "uint256"
        }
      ],
      "stateMutability": "view",
      "type": "function"
    },
    {
      "inputs": [],
      "name": "PLATFORM_FEE_PERCENT",
      "outputs": [
        {
          "internalType": "uint256",
          "name": "",
          "type": "uint256"
        }
      ],
      "stateMutability": "view",
      "type": "function"
    },
    {
      "inputs": [],
      "name": "RATIO_BASE",
      "outputs": [
        {
          "internalType": "uint256",
          "name": "",
          "type": "uint256"
        }
      ],
      "stateMutability": "view",
      "type": "function"
    },
    {
      "inputs": [],
      "name": "WINNER_RATIO",
      "outputs": [
        {
          "internalType": "uint256",
          "name": "",
          "type": "uint256"
        }
      ],
      "stateMutability": "view",
      "type": "function"
    },
    {
      "inputs": [
        {
          "internalType": "uint256",
          "name": "matchId",
          "type": "uint256"
        }
      ],
      "name": "claimReward",
      "outputs": [],
      "stateMutability": "nonpayable",
      "type": "function"
    },
    {
      "inputs": [
        {
          "internalType": "uint256",
          "name": "matchId",
          "type": "uint256"
        }
      ],
      "name": "createMatch",
      "outputs": [],
      "stateMutability": "nonpayable",
      "type": "function"
    },
    {
      "inputs": [],
      "name": "emergencyWithdraw",
      "outputs": [],
      "stateMutability": "nonpayable",
      "type": "function"
    },
    {
      "inputs": [
        {
          "internalType": "uint256",
          "name": "matchId",
          "type": "uint256"
        }
      ],
      "name": "getMatch",
      "outputs": [
        {
          "internalType": "uint256",
          "name": "",
          "type": "uint256"
        },
        {
          "internalType": "uint256",
          "name": "",
          "type": "uint256"
        },
        {
          "internalType": "uint256",
          "name": "",
          "type": "uint256"
        },
        {
          "internalType": "uint256",
          "name": "",
          "type": "uint256"
        },
        {
          "internalType": "uint8",
          "name": "",
          "type": "uint8"
        },
        {
          "internalType": "bool",
          "name": "",
          "type": "bool"
        },
        {
          "internalType": "bool",
          "name": "",
          "type": "bool"
        }
      ],
      "stateMutability": "view",
      "type": "function"
    },
    {
      "inputs": [
        {
          "internalType": "uint256",
          "name": "matchId",
          "type": "uint256"
        },
        {
          "internalType": "address",
          "name": "user",
          "type": "address"
        }
      ],
      "name": "getUserBet",
      "outputs": [
        {
          "internalType": "uint8",
          "name": "",
          "type": "uint8"
        },
        {
          "internalType": "uint256",
          "name": "",
          "type": "uint256"
        },
        {
          "internalType": "bool",
          "name": "",
          "type": "bool"
        }
      ],
      "stateMutability": "view",
      "type": "function"
    },
    {
      "inputs": [
        {
          "internalType": "uint256",
          "name": "matchId",
          "type": "uint256"
        },
        {
          "internalType": "uint256",
          "name": "amount",
          "type": "uint256"
        }
      ],
      "name": "injectReward",
      "outputs": [],
      "stateMutability": "nonpayable",
      "type": "function"
    },
    {
      "inputs": [
        {
          "internalType": "uint256",
          "name": "",
          "type": "uint256"
        }
      ],
      "name": "matchIds",
      "outputs": [
        {
          "internalType": "uint256",
          "name": "",
          "type": "uint256"
        }
      ],
      "stateMutability": "view",
      "type": "function"
    },
    {
      "inputs": [
        {
          "internalType": "uint256",
          "name": "matchId",
          "type": "uint256"
        },
        {
          "internalType": "uint8",
          "name": "team",
          "type": "uint8"
        },
        {
          "internalType": "uint256",
          "name": "amount",
          "type": "uint256"
        }
      ],
      "name": "placeBet",
      "outputs": [],
      "stateMutability": "nonpayable",
      "type": "function"
    },
    {
      "inputs": [
        {
          "internalType": "uint256",
          "name": "matchId",
          "type": "uint256"
        }
      ],
      "name": "resetMatch",
      "outputs": [],
      "stateMutability": "nonpayable",
      "type": "function"
    },
    {
      "inputs": [
        {
          "internalType": "uint256",
          "name": "matchId",
          "type": "uint256"
        },
        {
          "internalType": "uint8",
          "name": "result",
          "type": "uint8"
        }
      ],
      "name": "settleMatch",
      "outputs": [],
      "stateMutability": "nonpayable",
      "type": "function"
    }
  ],
  "bytecode": "0x60a060405234801561001057600080fd5b506040516115d23803806115d283398101604081905261002f91610045565b60016000556001600160a01b0316608052610075565b60006020828403121561005757600080fd5b81516001600160a01b038116811461006e57600080fd5b9392505050565b6080516115186100ba60003960008181610248015281816104a801528181610ae501528181610bb801528181610f38015281816110d001526111b001526115186000f3fe608060405234801561001057600080fd5b506004361061010b5760003560e01c80638e416c93116100a2578063c03fb87c11610071578063c03fb87c146102a3578063c11a563014610312578063cfa475011461031a578063da866c4814610322578063db2e21bc1461033557600080fd5b80638e416c9314610243578063a09d0dce1461026a578063ae169a501461027d578063b67a88f91461029057600080fd5b8063473cc0e3116100de578063473cc0e314610211578063560d52d4146102195780636540742f1461022157806367ac47111461023057600080fd5b8063097cd232146101105780632a0acc6a1461012557806336ff6a701461015d5780633d092b3d1461017e575b600080fd5b61012361011e3660046112c1565b61033d565b005b610140730d87d8e1def9ca4a5f1be181dc37c9ed9622c8d581565b6040516001600160a01b0390911681526020015b60405180910390f35b61017061016b3660046112e3565b61059e565b604051908152602001610154565b6101d561018c3660046112e3565b6000908152600160208190526040909120805491810154600282015460038301546004909301549394919390929160ff8083169261010081048216926201000090910490911690565b60408051978852602088019690965294860193909352606085019190915260ff166080840152151560a0830152151560c082015260e001610154565b610170604681565b610170600581565b610170670de0b6b3a764000081565b61012361023e3660046112e3565b6105bf565b6101407f000000000000000000000000000000000000000000000000000000000000000081565b610123610278366004611312565b6106b9565b61012361028b3660046112e3565b61085c565b61012361029e3660046112e3565b610cbb565b6102f16102b136600461133e565b60008281526001602081815260408084206001600160a01b038616855260050190915290912080549181015460029091015460ff92831692169250925092565b6040805160ff90941684526020840192909252151590820152606001610154565b610170606481565b610170601e81565b61012361033036600461137a565b610dac565b61012361107d565b33730d87d8e1def9ca4a5f1be181dc37c9ed9622c8d5146103795760405162461bcd60e51b8152600401610370906113af565b60405180910390fd5b610381611297565b600082815260016020526040812080549091036103b05760405162461bcd60e51b8152600401610370906113d3565b600481015462010000900460ff16156103fe5760405162461bcd60e51b815260206004820152601060248201526f105b1c9958591e481a5b9a9958dd195960821b6044820152606401610370565b6004810154610100900460ff16156104485760405162461bcd60e51b815260206004820152600d60248201526c13585d18da081cd95d1d1b1959609a1b6044820152606401610370565b600082116104865760405162461bcd60e51b815260206004820152600b60248201526a16995c9bc8185b5bdd5b9d60aa1b6044820152606401610370565b6040516323b872dd60e01b8152336004820152306024820152604481018390527f00000000000000000000000000000000000000000000000000000000000000006001600160a01b0316906323b872dd906064016020604051808303816000875af11580156104f9573d6000803e3d6000fd5b505050506040513d601f19601f8201168201806040525081019061051d91906113fc565b6105395760405162461bcd60e51b815260040161037090611425565b6003810182905560048101805462ff000019166201000017905560405183907f64fe04cd466a6f785131eb5f5a13b4ec0a27176e96119127d78c6d1d2fa27274906105879085815260200190565b60405180910390a25061059a6001600055565b5050565b600281815481106105ae57600080fd5b600091825260209091200154905081565b33730d87d8e1def9ca4a5f1be181dc37c9ed9622c8d5146105f25760405162461bcd60e51b8152600401610370906113af565b600081815260016020526040812080549091036106215760405162461bcd60e51b8152600401610370906113d3565b6004810154610100900460ff166106685760405162461bcd60e51b815260206004820152600b60248201526a139bdd081cd95d1d1b195960aa1b6044820152606401610370565b600060018201819055600282018190556003820181905560048201805462ffffff1916905560405183917f34bf18d7d934b69f239b96b5494fdf1a4b0e77589f153e9946bc9b6e28c0155991a25050565b33730d87d8e1def9ca4a5f1be181dc37c9ed9622c8d5146106ec5760405162461bcd60e51b8152600401610370906113af565b6000828152600160205260408120805490910361071b5760405162461bcd60e51b8152600401610370906113d3565b6004810154610100900460ff16156107675760405162461bcd60e51b815260206004820152600f60248201526e105b1c9958591e481cd95d1d1b1959608a1b6044820152606401610370565b600481015462010000900460ff166107b75760405162461bcd60e51b815260206004820152601360248201527214995dd85c99081b9bdd081a5b9a9958dd1959606a1b6044820152606401610370565b8160ff16600114806107cc57508160ff166002145b6108095760405162461bcd60e51b815260206004820152600e60248201526d125b9d985b1a59081c995cdd5b1d60921b6044820152606401610370565b60048101805461ffff191660ff84169081176101001790915560405190815283907fd455389610296740be2995ecb3aeaacddad222c9aa352f485b677869a11ac4b79060200160405180910390a2505050565b610864611297565b600081815260016020526040812080549091036108935760405162461bcd60e51b8152600401610370906113d3565b6004810154610100900460ff166108da5760405162461bcd60e51b815260206004820152600b60248201526a139bdd081cd95d1d1b195960aa1b6044820152606401610370565b336000908152600582016020526040902060018101546109255760405162461bcd60e51b8152602060048201526006602482015265139bc818995d60d21b6044820152606401610370565b600281015460ff161561096c5760405162461bcd60e51b815260206004820152600f60248201526e105b1c9958591e4818db185a5b5959608a1b6044820152606401610370565b60028101805460ff191660019081179091558101546004830154825460ff918216911603610a0f5760006064604685600301546109a99190611464565b6109b39190611481565b600485015490915060009060ff166001146109d25784600201546109d8565b84600101545b90508015610a0857808460010154836109f19190611464565b6109fb9190611481565b610a0590846114a3565b92505b5050610a86565b60006064601e8560030154610a249190611464565b610a2e9190611481565b600485015490915060009060ff16600114610a4d578460010154610a53565b84600201545b90508015610a835780846001015483610a6c9190611464565b610a769190611481565b610a8090846114a3565b92505b50505b60006064610a95600584611464565b610a9f9190611481565b90506000610aad82846114b6565b90508115610b9c5760405163a9059cbb60e01b8152730d87d8e1def9ca4a5f1be181dc37c9ed9622c8d56004820152602481018390527f00000000000000000000000000000000000000000000000000000000000000006001600160a01b03169063a9059cbb906044016020604051808303816000875af1158015610b36573d6000803e3d6000fd5b505050506040513d601f19601f82011682018060405250810190610b5a91906113fc565b610b9c5760405162461bcd60e51b8152602060048201526013602482015272119959481d1c985b9cd9995c8819985a5b1959606a1b6044820152606401610370565b60405163a9059cbb60e01b8152336004820152602481018290527f00000000000000000000000000000000000000000000000000000000000000006001600160a01b03169063a9059cbb906044016020604051808303816000875af1158015610c09573d6000803e3d6000fd5b505050506040513d601f19601f82011682018060405250810190610c2d91906113fc565b610c725760405162461bcd60e51b815260206004820152601660248201527514995dd85c99081d1c985b9cd9995c8819985a5b195960521b6044820152606401610370565b604051818152339087907f24b5efa61dd1cfc659205a97fb8ed868f3cb8c81922bab2b96423e5de1de2cb79060200160405180910390a35050505050610cb86001600055565b50565b33730d87d8e1def9ca4a5f1be181dc37c9ed9622c8d514610cee5760405162461bcd60e51b8152600401610370906113af565b60008181526001602052604090205415610d395760405162461bcd60e51b815260206004820152600c60248201526b4d617463682065786973747360a01b6044820152606401610370565b600081815260016020819052604080832084815560028054938401815584527f405787fa12a823e0f2b7631cc41b3ba8828b3321ca811111fa75cd3aa3bb5ace90920184905551909183917f029c42c1ae2efa2f406e0681e1f940dde3568cd96a1ecf3715dc1191f0d3edbc9190a25050565b610db4611297565b8160ff1660011480610dc957508160ff166002145b610e045760405162461bcd60e51b815260206004820152600c60248201526b496e76616c6964207465616d60a01b6044820152606401610370565b670de0b6b3a7640000811015610e4c5760405162461bcd60e51b815260206004820152600d60248201526c10995d081d1bdbc81cdb585b1b609a1b6044820152606401610370565b60008381526001602052604081208054909103610e7b5760405162461bcd60e51b8152600401610370906113d3565b6004810154610100900460ff1615610ec55760405162461bcd60e51b815260206004820152600d60248201526c13585d18da081cd95d1d1b1959609a1b6044820152606401610370565b3360009081526005820160205260409020600181015415610f165760405162461bcd60e51b815260206004820152600b60248201526a105b1c9958591e4818995d60aa1b6044820152606401610370565b6040516323b872dd60e01b8152336004820152306024820152604481018490527f00000000000000000000000000000000000000000000000000000000000000006001600160a01b0316906323b872dd906064016020604051808303816000875af1158015610f89573d6000803e3d6000fd5b505050506040513d601f19601f82011682018060405250810190610fad91906113fc565b610fc95760405162461bcd60e51b815260040161037090611425565b805460ff851660ff199182168117835560018084018690556002840180549093169092559003611012578282600101600082825461100791906114a3565b9091555061102c9050565b8282600201600082825461102691906114a3565b90915550505b6040805160ff8616815260208101859052339187917f4f1eed5e863a822b0f9eb960dfdab2cc5a99beec4b191f2a7a9c7e28e5a15524910160405180910390a350506110786001600055565b505050565b33730d87d8e1def9ca4a5f1be181dc37c9ed9622c8d5146110b05760405162461bcd60e51b8152600401610370906113af565b6110b8611297565b6040516370a0823160e01b81523060048201526000907f00000000000000000000000000000000000000000000000000000000000000006001600160a01b0316906370a0823190602401602060405180830381865afa15801561111f573d6000803e3d6000fd5b505050506040513d601f19601f8201168201806040525081019061114391906114c9565b9050600081116111805760405162461bcd60e51b81526020600482015260086024820152674e6f2066756e647360c01b6044820152606401610370565b60405163a9059cbb60e01b8152730d87d8e1def9ca4a5f1be181dc37c9ed9622c8d56004820152602481018290527f00000000000000000000000000000000000000000000000000000000000000006001600160a01b03169063a9059cbb906044016020604051808303816000875af1158015611201573d6000803e3d6000fd5b505050506040513d601f19601f8201168201806040525081019061122591906113fc565b6112415760405162461bcd60e51b815260040161037090611425565b604051818152730d87d8e1def9ca4a5f1be181dc37c9ed9622c8d5907f5fafa99d0643513820be26656b45130b01e1c03062e1266bf36f88cbd3bd96959060200160405180910390a2506112956001600055565b565b6002600054036112ba57604051633ee5aeb560e01b815260040160405180910390fd5b6002600055565b600080604083850312156112d457600080fd5b50508035926020909101359150565b6000602082840312156112f557600080fd5b5035919050565b803560ff8116811461130d57600080fd5b919050565b6000806040838503121561132557600080fd5b82359150611335602084016112fc565b90509250929050565b6000806040838503121561135157600080fd5b8235915060208301356001600160a01b038116811461136f57600080fd5b809150509250929050565b60008060006060848603121561138f57600080fd5b8335925061139f602085016112fc565b9150604084013590509250925092565b6020808252600a908201526927b7363c9030b236b4b760b11b604082015260600190565b6020808252600f908201526e13585d18da081b9bdd08195e1a5cdd608a1b604082015260600190565b60006020828403121561140e57600080fd5b8151801515811461141e57600080fd5b9392505050565b6020808252600f908201526e151c985b9cd9995c8819985a5b1959608a1b604082015260600190565b634e487b7160e01b600052601160045260246000fd5b808202811582820484141761147b5761147b61144e565b92915050565b60008261149e57634e487b7160e01b600052601260045260246000fd5b500490565b8082018082111561147b5761147b61144e565b8181038181111561147b5761147b61144e565b6000602082840312156114db57600080fd5b505191905056fea26469706673582212200cfaee88b7bf0b3ed63a1ca5a24fbdf83aed47b2dec69b48b3fa8c75924b093b64736f6c63430008140033",
  "linkReferences": {},
  "deployedLinkReferences": {}
}