{
  "_format": "hh-sol-artifact-1",
  "contractName": "FanForcePredictionDemo",
  "sourceName": "contracts/FanForcePredictionDemo.sol",
  "abi": [
    {
      "inputs": [],
      "stateMutability": "nonpayable",
      "type": "constructor"
    },
    {
      "inputs": [],
      "name": "ReentrancyGuardReentrantCall",
      "type": "error"
    },
    {
      "anonymous": false,
      "inputs": [
        {
          "indexed": true,
          "internalType": "uint256",
          "name": "matchId",
          "type": "uint256"
        },
        {
          "indexed": true,
          "internalType": "address",
          "name": "user",
          "type": "address"
        },
        {
          "indexed": false,
          "internalType": "uint8",
          "name": "team",
          "type": "uint8"
        },
        {
          "indexed": false,
          "internalType": "uint256",
          "name": "netAmount",
          "type": "uint256"
        },
        {
          "indexed": false,
          "internalType": "uint256",
          "name": "fee",
          "type": "uint256"
        }
      ],
      "name": "BetPlaced",
      "type": "event"
    },
    {
      "anonymous": false,
      "inputs": [
        {
          "indexed": true,
          "internalType": "address",
          "name": "admin",
          "type": "address"
        },
        {
          "indexed": false,
          "internalType": "uint256",
          "name": "amount",
          "type": "uint256"
        }
      ],
      "name": "EmergencyWithdraw",
      "type": "event"
    },
    {
      "anonymous": false,
      "inputs": [
        {
          "indexed": true,
          "internalType": "uint256",
          "name": "matchId",
          "type": "uint256"
        }
      ],
      "name": "MatchCreated",
      "type": "event"
    },
    {
      "anonymous": false,
      "inputs": [
        {
          "indexed": true,
          "internalType": "uint256",
          "name": "matchId",
          "type": "uint256"
        }
      ],
      "name": "MatchDeleted",
      "type": "event"
    },
    {
      "anonymous": false,
      "inputs": [
        {
          "indexed": true,
          "internalType": "uint256",
          "name": "matchId",
          "type": "uint256"
        }
      ],
      "name": "MatchReset",
      "type": "event"
    },
    {
      "anonymous": false,
      "inputs": [
        {
          "indexed": true,
          "internalType": "uint256",
          "name": "matchId",
          "type": "uint256"
        },
        {
          "indexed": false,
          "internalType": "uint8",
          "name": "result",
          "type": "uint8"
        }
      ],
      "name": "MatchSettled",
      "type": "event"
    },
    {
      "anonymous": false,
      "inputs": [
        {
          "indexed": true,
          "internalType": "uint256",
          "name": "matchId",
          "type": "uint256"
        },
        {
          "indexed": true,
          "internalType": "address",
          "name": "user",
          "type": "address"
        },
        {
          "indexed": false,
          "internalType": "uint256",
          "name": "principal",
          "type": "uint256"
        },
        {
          "indexed": false,
          "internalType": "uint256",
          "name": "rewardShare",
          "type": "uint256"
        },
        {
          "indexed": false,
          "internalType": "uint256",
          "name": "fee",
          "type": "uint256"
        },
        {
          "indexed": false,
          "internalType": "uint256",
          "name": "finalAmount",
          "type": "uint256"
        }
      ],
      "name": "RewardClaimed",
      "type": "event"
    },
    {
      "anonymous": false,
      "inputs": [
        {
          "indexed": true,
          "internalType": "uint256",
          "name": "matchId",
          "type": "uint256"
        },
        {
          "indexed": false,
          "internalType": "uint256",
          "name": "amount",
          "type": "uint256"
        }
      ],
      "name": "RewardInjected",
      "type": "event"
    },
    {
      "inputs": [],
      "name": "ADMIN",
      "outputs": [
        {
          "internalType": "address",
          "name": "",
          "type": "address"
        }
      ],
      "stateMutability": "view",
      "type": "function"
    },
    {
      "inputs": [],
      "name": "LOSER_RATIO",
      "outputs": [
        {
          "internalType": "uint256",
          "name": "",
          "type": "uint256"
        }
      ],
      "stateMutability": "view",
      "type": "function"
    },
    {
      "inputs": [],
      "name": "MIN_BET",
      "outputs": [
        {
          "internalType": "uint256",
          "name": "",
          "type": "uint256"
        }
      ],
      "stateMutability": "view",
      "type": "function"
    },
    {
      "inputs": [],
      "name": "PLATFORM_FEE_PERCENT",
      "outputs": [
        {
          "internalType": "uint256",
          "name": "",
          "type": "uint256"
        }
      ],
      "stateMutability": "view",
      "type": "function"
    },
    {
      "inputs": [],
      "name": "RATIO_BASE",
      "outputs": [
        {
          "internalType": "uint256",
          "name": "",
          "type": "uint256"
        }
      ],
      "stateMutability": "view",
      "type": "function"
    },
    {
      "inputs": [],
      "name": "WINNER_RATIO",
      "outputs": [
        {
          "internalType": "uint256",
          "name": "",
          "type": "uint256"
        }
      ],
      "stateMutability": "view",
      "type": "function"
    },
    {
      "inputs": [
        {
          "internalType": "uint256",
          "name": "matchId",
          "type": "uint256"
        }
      ],
      "name": "claimReward",
      "outputs": [],
      "stateMutability": "nonpayable",
      "type": "function"
    },
    {
      "inputs": [
        {
          "internalType": "uint256",
          "name": "matchId",
          "type": "uint256"
        }
      ],
      "name": "createMatch",
      "outputs": [],
      "stateMutability": "nonpayable",
      "type": "function"
    },
    {
      "inputs": [
        {
          "internalType": "uint256",
          "name": "matchId",
          "type": "uint256"
        }
      ],
      "name": "deleteMatch",
      "outputs": [],
      "stateMutability": "nonpayable",
      "type": "function"
    },
    {
      "inputs": [],
      "name": "emergencyWithdraw",
      "outputs": [],
      "stateMutability": "nonpayable",
      "type": "function"
    },
    {
      "inputs": [
        {
          "internalType": "uint256",
          "name": "matchId",
          "type": "uint256"
        }
      ],
      "name": "getMatch",
      "outputs": [
        {
          "internalType": "uint256",
          "name": "",
          "type": "uint256"
        },
        {
          "internalType": "uint256",
          "name": "",
          "type": "uint256"
        },
        {
          "internalType": "uint256",
          "name": "",
          "type": "uint256"
        },
        {
          "internalType": "uint256",
          "name": "",
          "type": "uint256"
        },
        {
          "internalType": "uint8",
          "name": "",
          "type": "uint8"
        },
        {
          "internalType": "bool",
          "name": "",
          "type": "bool"
        },
        {
          "internalType": "bool",
          "name": "",
          "type": "bool"
        }
      ],
      "stateMutability": "view",
      "type": "function"
    },
    {
      "inputs": [
        {
          "internalType": "uint256",
          "name": "matchId",
          "type": "uint256"
        },
        {
          "internalType": "address",
          "name": "user",
          "type": "address"
        }
      ],
      "name": "getUserBet",
      "outputs": [
        {
          "internalType": "uint8",
          "name": "",
          "type": "uint8"
        },
        {
          "internalType": "uint256",
          "name": "",
          "type": "uint256"
        },
        {
          "internalType": "bool",
          "name": "",
          "type": "bool"
        }
      ],
      "stateMutability": "view",
      "type": "function"
    },
    {
      "inputs": [
        {
          "internalType": "uint256",
          "name": "matchId",
          "type": "uint256"
        },
        {
          "internalType": "uint256",
          "name": "amount",
          "type": "uint256"
        }
      ],
      "name": "injectReward",
      "outputs": [],
      "stateMutability": "payable",
      "type": "function"
    },
    {
      "inputs": [
        {
          "internalType": "uint256",
          "name": "",
          "type": "uint256"
        }
      ],
      "name": "matchIds",
      "outputs": [
        {
          "internalType": "uint256",
          "name": "",
          "type": "uint256"
        }
      ],
      "stateMutability": "view",
      "type": "function"
    },
    {
      "inputs": [
        {
          "internalType": "uint256",
          "name": "matchId",
          "type": "uint256"
        },
        {
          "internalType": "uint8",
          "name": "team",
          "type": "uint8"
        },
        {
          "internalType": "uint256",
          "name": "amount",
          "type": "uint256"
        }
      ],
      "name": "placeBet",
      "outputs": [],
      "stateMutability": "payable",
      "type": "function"
    },
    {
      "inputs": [
        {
          "internalType": "uint256",
          "name": "matchId",
          "type": "uint256"
        }
      ],
      "name": "resetMatch",
      "outputs": [],
      "stateMutability": "nonpayable",
      "type": "function"
    },
    {
      "inputs": [
        {
          "internalType": "uint256",
          "name": "matchId",
          "type": "uint256"
        },
        {
          "internalType": "uint8",
          "name": "result",
          "type": "uint8"
        }
      ],
      "name": "settleMatch",
      "outputs": [],
      "stateMutability": "nonpayable",
      "type": "function"
    }
  ],
  "bytecode": "0x608060405234801561001057600080fd5b506001600081905550612b1c806100286000396000f3fe6080604052600436106100fe5760003560e01c80639512ada211610095578063c03fb87c11610064578063c03fb87c14610318578063c11a563014610357578063cfa4750114610382578063da866c48146103ad578063db2e21bc146103c9576100fe565b80639512ada214610274578063a09d0dce1461029d578063ae169a50146102c6578063b67a88f9146102ef576100fe565b8063473cc0e3116100d1578063473cc0e3146101ca578063560d52d4146101f55780636540742f1461022057806367ac47111461024b576100fe565b8063097cd232146101035780632a0acc6a1461011f57806336ff6a701461014a5780633d092b3d14610187575b600080fd5b61011d60048036038101906101189190611bd6565b6103e0565b005b34801561012b57600080fd5b5061013461065c565b6040516101419190611c57565b60405180910390f35b34801561015657600080fd5b50610171600480360381019061016c9190611c72565b610674565b60405161017e9190611cae565b60405180910390f35b34801561019357600080fd5b506101ae60048036038101906101a99190611c72565b610698565b6040516101c19796959493929190611d00565b60405180910390f35b3480156101d657600080fd5b506101df61071d565b6040516101ec9190611cae565b60405180910390f35b34801561020157600080fd5b5061020a610722565b6040516102179190611cae565b60405180910390f35b34801561022c57600080fd5b50610235610727565b6040516102429190611cae565b60405180910390f35b34801561025757600080fd5b50610272600480360381019061026d9190611c72565b610733565b005b34801561028057600080fd5b5061029b60048036038101906102969190611c72565b61090b565b005b3480156102a957600080fd5b506102c460048036038101906102bf9190611d9b565b610bff565b005b3480156102d257600080fd5b506102ed60048036038101906102e89190611c72565b610e4d565b005b3480156102fb57600080fd5b5061031660048036038101906103119190611c72565b61134f565b005b34801561032457600080fd5b5061033f600480360381019061033a9190611e07565b6114a4565b60405161034e93929190611e47565b60405180910390f35b34801561036357600080fd5b5061036c611536565b6040516103799190611cae565b60405180910390f35b34801561038e57600080fd5b5061039761153b565b6040516103a49190611cae565b60405180910390f35b6103c760048036038101906103c29190611e7e565b611540565b005b3480156103d557600080fd5b506103de61194b565b005b730d87d8e1def9ca4a5f1be181dc37c9ed9622c8d573ffffffffffffffffffffffffffffffffffffffff163373ffffffffffffffffffffffffffffffffffffffff1614610462576040517f08c379a000000000000000000000000000000000000000000000000000000000815260040161045990611f2e565b60405180910390fd5b61046a611b4b565b600060016000848152602001908152602001600020905060008160000154036104c8576040517f08c379a00000000000000000000000000000000000000000000000000000000081526004016104bf90611f9a565b60405180910390fd5b8060040160029054906101000a900460ff161561051a576040517f08c379a000000000000000000000000000000000000000000000000000000000815260040161051190612006565b60405180910390fd5b8060040160019054906101000a900460ff161561056c576040517f08c379a000000000000000000000000000000000000000000000000000000000815260040161056390612072565b60405180910390fd5b600082116105af576040517f08c379a00000000000000000000000000000000000000000000000000000000081526004016105a6906120de565b60405180910390fd5b8134146105f1576040517f08c379a00000000000000000000000000000000000000000000000000000000081526004016105e89061214a565b60405180910390fd5b81816003018190555060018160040160026101000a81548160ff021916908315150217905550827f64fe04cd466a6f785131eb5f5a13b4ec0a27176e96119127d78c6d1d2fa27274836040516106479190611cae565b60405180910390a250610658611b91565b5050565b730d87d8e1def9ca4a5f1be181dc37c9ed9622c8d581565b6002818154811061068457600080fd5b906000526020600020016000915090505481565b600080600080600080600080600160008a8152602001908152602001600020905080600001548160010154826002015483600301548460040160009054906101000a900460ff168560040160019054906101000a900460ff168660040160029054906101000a900460ff16975097509750975097509750975050919395979092949650565b604681565b600581565b670de0b6b3a764000081565b730d87d8e1def9ca4a5f1be181dc37c9ed9622c8d573ffffffffffffffffffffffffffffffffffffffff163373ffffffffffffffffffffffffffffffffffffffff16146107b5576040517f08c379a00000000000000000000000000000000000000000000000000000000081526004016107ac90611f2e565b60405180910390fd5b60006001600083815260200190815260200160002090506000816000015403610813576040517f08c379a000000000000000000000000000000000000000000000000000000000815260040161080a90611f9a565b60405180910390fd5b8060040160019054906101000a900460ff16610864576040517f08c379a000000000000000000000000000000000000000000000000000000000815260040161085b906121b6565b60405180910390fd5b60008160010181905550600081600201819055506000816003018190555060008160040160006101000a81548160ff021916908360ff16021790555060008160040160016101000a81548160ff02191690831515021790555060008160040160026101000a81548160ff021916908315150217905550817f34bf18d7d934b69f239b96b5494fdf1a4b0e77589f153e9946bc9b6e28c0155960405160405180910390a25050565b730d87d8e1def9ca4a5f1be181dc37c9ed9622c8d573ffffffffffffffffffffffffffffffffffffffff163373ffffffffffffffffffffffffffffffffffffffff161461098d576040517f08c379a000000000000000000000000000000000000000000000000000000000815260040161098490611f2e565b60405180910390fd5b600060016000838152602001908152602001600020905060008160000154036109eb576040517f08c379a00000000000000000000000000000000000000000000000000000000081526004016109e290611f9a565b60405180910390fd5b60008160010154148015610a03575060008160020154145b610a42576040517f08c379a0000000000000000000000000000000000000000000000000000000008152600401610a3990612222565b60405180910390fd5b8060040160019054906101000a900460ff1615610a94576040517f08c379a0000000000000000000000000000000000000000000000000000000008152600401610a8b9061228e565b60405180910390fd5b60005b600280549050811015610b5b578260028281548110610ab957610ab86122ae565b5b906000526020600020015403610b485760026001600280549050610add919061230c565b81548110610aee57610aed6122ae565b5b906000526020600020015460028281548110610b0d57610b0c6122ae565b5b90600052602060002001819055506002805480610b2d57610b2c612340565b5b60019003818190600052602060002001600090559055610b5b565b8080610b539061236f565b915050610a97565b50600160008381526020019081526020016000206000808201600090556001820160009055600282016000905560038201600090556004820160006101000a81549060ff02191690556004820160016101000a81549060ff02191690556004820160026101000a81549060ff02191690555050817f4a5a134b29f0b3201b6013517626460a42e26046e6827189dc25ed7de0a87b6360405160405180910390a25050565b730d87d8e1def9ca4a5f1be181dc37c9ed9622c8d573ffffffffffffffffffffffffffffffffffffffff163373ffffffffffffffffffffffffffffffffffffffff1614610c81576040517f08c379a0000000000000000000000000000000000000000000000000000000008152600401610c7890611f2e565b60405180910390fd5b60006001600084815260200190815260200160002090506000816000015403610cdf576040517f08c379a0000000000000000000000000000000000000000000000000000000008152600401610cd690611f9a565b60405180910390fd5b8060040160019054906101000a900460ff1615610d31576040517f08c379a0000000000000000000000000000000000000000000000000000000008152600401610d2890612403565b60405180910390fd5b8060040160029054906101000a900460ff16610d82576040517f08c379a0000000000000000000000000000000000000000000000000000000008152600401610d799061246f565b60405180910390fd5b60018260ff161480610d97575060028260ff16145b610dd6576040517f08c379a0000000000000000000000000000000000000000000000000000000008152600401610dcd906124db565b60405180910390fd5b818160040160006101000a81548160ff021916908360ff16021790555060018160040160016101000a81548160ff021916908315150217905550827fd455389610296740be2995ecb3aeaacddad222c9aa352f485b677869a11ac4b783604051610e4091906124fb565b60405180910390a2505050565b610e55611b4b565b60006001600083815260200190815260200160002090506000816000015403610eb3576040517f08c379a0000000000000000000000000000000000000000000000000000000008152600401610eaa90611f9a565b60405180910390fd5b8060040160019054906101000a900460ff16610f04576040517f08c379a0000000000000000000000000000000000000000000000000000000008152600401610efb906121b6565b60405180910390fd5b60008160050160003373ffffffffffffffffffffffffffffffffffffffff1673ffffffffffffffffffffffffffffffffffffffff16815260200190815260200160002090506000816001015411610f90576040517f08c379a0000000000000000000000000000000000000000000000000000000008152600401610f8790612562565b60405180910390fd5b8060020160009054906101000a900460ff1615610fe2576040517f08c379a0000000000000000000000000000000000000000000000000000000008152600401610fd9906125ce565b60405180910390fd5b60018160020160006101000a81548160ff02191690831515021790555060008160010154905060008360040160009054906101000a900460ff1660ff168360000160009054906101000a900460ff1660ff16036110b857600060646046866003015461104e91906125ee565b611058919061265f565b9050600060018660040160009054906101000a900460ff1660ff1614611082578560020154611088565b85600101545b905060008111156110b157808560010154836110a491906125ee565b6110ae919061265f565b92505b5050611133565b60006064601e86600301546110cd91906125ee565b6110d7919061265f565b9050600060018660040160009054906101000a900460ff1660ff1614611101578560010154611107565b85600201545b90506000811115611130578085600101548361112391906125ee565b61112d919061265f565b92505b50505b600081836111419190612690565b90506000606460058361115491906125ee565b61115e919061265f565b90506000818361116e919061230c565b9050600082111561123b576000730d87d8e1def9ca4a5f1be181dc37c9ed9622c8d573ffffffffffffffffffffffffffffffffffffffff16836040516111b3906126f5565b60006040518083038185875af1925050503d80600081146111f0576040519150601f19603f3d011682016040523d82523d6000602084013e6111f5565b606091505b5050905080611239576040517f08c379a000000000000000000000000000000000000000000000000000000000815260040161123090612756565b60405180910390fd5b505b60003373ffffffffffffffffffffffffffffffffffffffff1682604051611261906126f5565b60006040518083038185875af1925050503d806000811461129e576040519150601f19603f3d011682016040523d82523d6000602084013e6112a3565b606091505b50509050806112e7576040517f08c379a00000000000000000000000000000000000000000000000000000000081526004016112de906127c2565b60405180910390fd5b3373ffffffffffffffffffffffffffffffffffffffff16897f1cafd5d808f4a393e0f07cc5e01faee87efa08214cc3f1af8b85b16165f34d638888878760405161133494939291906127e2565b60405180910390a3505050505050505061134c611b91565b50565b730d87d8e1def9ca4a5f1be181dc37c9ed9622c8d573ffffffffffffffffffffffffffffffffffffffff163373ffffffffffffffffffffffffffffffffffffffff16146113d1576040517f08c379a00000000000000000000000000000000000000000000000000000000081526004016113c890611f2e565b60405180910390fd5b600060016000838152602001908152602001600020600001541461142a576040517f08c379a000000000000000000000000000000000000000000000000000000000815260040161142190612873565b60405180910390fd5b60006001600083815260200190815260200160002090508181600001819055506002829080600181540180825580915050600190039060005260206000200160009091909190915055817f029c42c1ae2efa2f406e0681e1f940dde3568cd96a1ecf3715dc1191f0d3edbc60405160405180910390a25050565b6000806000806001600087815260200190815260200160002060050160008673ffffffffffffffffffffffffffffffffffffffff1673ffffffffffffffffffffffffffffffffffffffff16815260200190815260200160002090508060000160009054906101000a900460ff1681600101548260020160009054906101000a900460ff16935093509350509250925092565b606481565b601e81565b611548611b4b565b60018260ff16148061155d575060028260ff16145b61159c576040517f08c379a0000000000000000000000000000000000000000000000000000000008152600401611593906128df565b60405180910390fd5b670de0b6b3a76400008110156115e7576040517f08c379a00000000000000000000000000000000000000000000000000000000081526004016115de9061294b565b60405180910390fd5b803414611629576040517f08c379a00000000000000000000000000000000000000000000000000000000081526004016116209061214a565b60405180910390fd5b60006001600085815260200190815260200160002090506000816000015403611687576040517f08c379a000000000000000000000000000000000000000000000000000000000815260040161167e90611f9a565b60405180910390fd5b8060040160019054906101000a900460ff16156116d9576040517f08c379a00000000000000000000000000000000000000000000000000000000081526004016116d090612072565b60405180910390fd5b60008160050160003373ffffffffffffffffffffffffffffffffffffffff1673ffffffffffffffffffffffffffffffffffffffff16815260200190815260200160002090506000816001015414611765576040517f08c379a000000000000000000000000000000000000000000000000000000000815260040161175c906129b7565b60405180910390fd5b6000606460058561177691906125ee565b611780919061265f565b905060008185611790919061230c565b9050600082111561185d576000730d87d8e1def9ca4a5f1be181dc37c9ed9622c8d573ffffffffffffffffffffffffffffffffffffffff16836040516117d5906126f5565b60006040518083038185875af1925050503d8060008114611812576040519150601f19603f3d011682016040523d82523d6000602084013e611817565b606091505b505090508061185b576040517f08c379a000000000000000000000000000000000000000000000000000000000815260040161185290612756565b60405180910390fd5b505b858360000160006101000a81548160ff021916908360ff16021790555080836001018190555060008360020160006101000a81548160ff02191690831515021790555060018660ff16036118cb57808460010160008282546118bf9190612690565b925050819055506118e7565b808460020160008282546118df9190612690565b925050819055505b3373ffffffffffffffffffffffffffffffffffffffff16877fbfcd8f4e47cc529f86cdc7eab8fb80e015a298e021fcaee72df1f76dd57cf487888486604051611932939291906129d7565b60405180910390a350505050611946611b91565b505050565b730d87d8e1def9ca4a5f1be181dc37c9ed9622c8d573ffffffffffffffffffffffffffffffffffffffff163373ffffffffffffffffffffffffffffffffffffffff16146119cd576040517f08c379a00000000000000000000000000000000000000000000000000000000081526004016119c490611f2e565b60405180910390fd5b6119d5611b4b565b600047905060008111611a1d576040517f08c379a0000000000000000000000000000000000000000000000000000000008152600401611a1490612a5a565b60405180910390fd5b6000730d87d8e1def9ca4a5f1be181dc37c9ed9622c8d573ffffffffffffffffffffffffffffffffffffffff1682604051611a57906126f5565b60006040518083038185875af1925050503d8060008114611a94576040519150601f19603f3d011682016040523d82523d6000602084013e611a99565b606091505b5050905080611add576040517f08c379a0000000000000000000000000000000000000000000000000000000008152600401611ad490612ac6565b60405180910390fd5b730d87d8e1def9ca4a5f1be181dc37c9ed9622c8d573ffffffffffffffffffffffffffffffffffffffff167f5fafa99d0643513820be26656b45130b01e1c03062e1266bf36f88cbd3bd969583604051611b379190611cae565b60405180910390a25050611b49611b91565b565b600260005403611b87576040517f3ee5aeb500000000000000000000000000000000000000000000000000000000815260040160405180910390fd5b6002600081905550565b6001600081905550565b600080fd5b6000819050919050565b611bb381611ba0565b8114611bbe57600080fd5b50565b600081359050611bd081611baa565b92915050565b60008060408385031215611bed57611bec611b9b565b5b6000611bfb85828601611bc1565b9250506020611c0c85828601611bc1565b9150509250929050565b600073ffffffffffffffffffffffffffffffffffffffff82169050919050565b6000611c4182611c16565b9050919050565b611c5181611c36565b82525050565b6000602082019050611c6c6000830184611c48565b92915050565b600060208284031215611c8857611c87611b9b565b5b6000611c9684828501611bc1565b91505092915050565b611ca881611ba0565b82525050565b6000602082019050611cc36000830184611c9f565b92915050565b600060ff82169050919050565b611cdf81611cc9565b82525050565b60008115159050919050565b611cfa81611ce5565b82525050565b600060e082019050611d15600083018a611c9f565b611d226020830189611c9f565b611d2f6040830188611c9f565b611d3c6060830187611c9f565b611d496080830186611cd6565b611d5660a0830185611cf1565b611d6360c0830184611cf1565b98975050505050505050565b611d7881611cc9565b8114611d8357600080fd5b50565b600081359050611d9581611d6f565b92915050565b60008060408385031215611db257611db1611b9b565b5b6000611dc085828601611bc1565b9250506020611dd185828601611d86565b9150509250929050565b611de481611c36565b8114611def57600080fd5b50565b600081359050611e0181611ddb565b92915050565b60008060408385031215611e1e57611e1d611b9b565b5b6000611e2c85828601611bc1565b9250506020611e3d85828601611df2565b9150509250929050565b6000606082019050611e5c6000830186611cd6565b611e696020830185611c9f565b611e766040830184611cf1565b949350505050565b600080600060608486031215611e9757611e96611b9b565b5b6000611ea586828701611bc1565b9350506020611eb686828701611d86565b9250506040611ec786828701611bc1565b9150509250925092565b600082825260208201905092915050565b7f4f6e6c792061646d696e00000000000000000000000000000000000000000000600082015250565b6000611f18600a83611ed1565b9150611f2382611ee2565b602082019050919050565b60006020820190508181036000830152611f4781611f0b565b9050919050565b7f4d61746368206e6f742065786973740000000000000000000000000000000000600082015250565b6000611f84600f83611ed1565b9150611f8f82611f4e565b602082019050919050565b60006020820190508181036000830152611fb381611f77565b9050919050565b7f416c726561647920696e6a656374656400000000000000000000000000000000600082015250565b6000611ff0601083611ed1565b9150611ffb82611fba565b602082019050919050565b6000602082019050818103600083015261201f81611fe3565b9050919050565b7f4d6174636820736574746c656400000000000000000000000000000000000000600082015250565b600061205c600d83611ed1565b915061206782612026565b602082019050919050565b6000602082019050818103600083015261208b8161204f565b9050919050565b7f5a65726f20616d6f756e74000000000000000000000000000000000000000000600082015250565b60006120c8600b83611ed1565b91506120d382612092565b602082019050919050565b600060208201905081810360008301526120f7816120bb565b9050919050565b7f56616c7565206d69736d61746368000000000000000000000000000000000000600082015250565b6000612134600e83611ed1565b915061213f826120fe565b602082019050919050565b6000602082019050818103600083015261216381612127565b9050919050565b7f4e6f7420736574746c6564000000000000000000000000000000000000000000600082015250565b60006121a0600b83611ed1565b91506121ab8261216a565b602082019050919050565b600060208201905081810360008301526121cf81612193565b9050919050565b7f4d61746368206861732062657473000000000000000000000000000000000000600082015250565b600061220c600e83611ed1565b9150612217826121d6565b602082019050919050565b6000602082019050818103600083015261223b816121ff565b9050919050565b7f4d6174636820616c726561647920736574746c65640000000000000000000000600082015250565b6000612278601583611ed1565b915061228382612242565b602082019050919050565b600060208201905081810360008301526122a78161226b565b9050919050565b7f4e487b7100000000000000000000000000000000000000000000000000000000600052603260045260246000fd5b7f4e487b7100000000000000000000000000000000000000000000000000000000600052601160045260246000fd5b600061231782611ba0565b915061232283611ba0565b925082820390508181111561233a576123396122dd565b5b92915050565b7f4e487b7100000000000000000000000000000000000000000000000000000000600052603160045260246000fd5b600061237a82611ba0565b91507fffffffffffffffffffffffffffffffffffffffffffffffffffffffffffffffff82036123ac576123ab6122dd565b5b600182019050919050565b7f416c726561647920736574746c65640000000000000000000000000000000000600082015250565b60006123ed600f83611ed1565b91506123f8826123b7565b602082019050919050565b6000602082019050818103600083015261241c816123e0565b9050919050565b7f526577617264206e6f7420696e6a656374656400000000000000000000000000600082015250565b6000612459601383611ed1565b915061246482612423565b602082019050919050565b600060208201905081810360008301526124888161244c565b9050919050565b7f496e76616c696420726573756c74000000000000000000000000000000000000600082015250565b60006124c5600e83611ed1565b91506124d08261248f565b602082019050919050565b600060208201905081810360008301526124f4816124b8565b9050919050565b60006020820190506125106000830184611cd6565b92915050565b7f4e6f206265740000000000000000000000000000000000000000000000000000600082015250565b600061254c600683611ed1565b915061255782612516565b602082019050919050565b6000602082019050818103600083015261257b8161253f565b9050919050565b7f416c726561647920636c61696d65640000000000000000000000000000000000600082015250565b60006125b8600f83611ed1565b91506125c382612582565b602082019050919050565b600060208201905081810360008301526125e7816125ab565b9050919050565b60006125f982611ba0565b915061260483611ba0565b925082820261261281611ba0565b91508282048414831517612629576126286122dd565b5b5092915050565b7f4e487b7100000000000000000000000000000000000000000000000000000000600052601260045260246000fd5b600061266a82611ba0565b915061267583611ba0565b92508261268557612684612630565b5b828204905092915050565b600061269b82611ba0565b91506126a683611ba0565b92508282019050808211156126be576126bd6122dd565b5b92915050565b600081905092915050565b50565b60006126df6000836126c4565b91506126ea826126cf565b600082019050919050565b6000612700826126d2565b9150819050919050565b7f466565207472616e73666572206661696c656400000000000000000000000000600082015250565b6000612740601383611ed1565b915061274b8261270a565b602082019050919050565b6000602082019050818103600083015261276f81612733565b9050919050565b7f526577617264207472616e73666572206661696c656400000000000000000000600082015250565b60006127ac601683611ed1565b91506127b782612776565b602082019050919050565b600060208201905081810360008301526127db8161279f565b9050919050565b60006080820190506127f76000830187611c9f565b6128046020830186611c9f565b6128116040830185611c9f565b61281e6060830184611c9f565b95945050505050565b7f4d61746368206578697374730000000000000000000000000000000000000000600082015250565b600061285d600c83611ed1565b915061286882612827565b602082019050919050565b6000602082019050818103600083015261288c81612850565b9050919050565b7f496e76616c6964207465616d0000000000000000000000000000000000000000600082015250565b60006128c9600c83611ed1565b91506128d482612893565b602082019050919050565b600060208201905081810360008301526128f8816128bc565b9050919050565b7f42657420746f6f20736d616c6c00000000000000000000000000000000000000600082015250565b6000612935600d83611ed1565b9150612940826128ff565b602082019050919050565b6000602082019050818103600083015261296481612928565b9050919050565b7f416c726561647920626574000000000000000000000000000000000000000000600082015250565b60006129a1600b83611ed1565b91506129ac8261296b565b602082019050919050565b600060208201905081810360008301526129d081612994565b9050919050565b60006060820190506129ec6000830186611cd6565b6129f96020830185611c9f565b612a066040830184611c9f565b949350505050565b7f4e6f2066756e6473000000000000000000000000000000000000000000000000600082015250565b6000612a44600883611ed1565b9150612a4f82612a0e565b602082019050919050565b60006020820190508181036000830152612a7381612a37565b9050919050565b7f5472616e73666572206661696c65640000000000000000000000000000000000600082015250565b6000612ab0600f83611ed1565b9150612abb82612a7a565b602082019050919050565b60006020820190508181036000830152612adf81612aa3565b905091905056fea26469706673582212201c7897287b4c0725e705448bc2006b653aeba2e78f3ce3a4e3945e902da8bafc64736f6c63430008140033",
  "linkReferences": {},
  "deployedLinkReferences": {}
}