{
  "_format": "hh-sol-artifact-1",
  "contractName": "FanForcePredictionDemo",
  "sourceName": "contracts/FanForcePredictionDemo.sol",
  "abi": [
    {
      "inputs": [
        {
          "internalType": "address",
          "name": "chzToken",
          "type": "address"
        }
      ],
      "stateMutability": "nonpayable",
      "type": "constructor"
    },
    {
      "inputs": [],
      "name": "ReentrancyGuardReentrantCall",
      "type": "error"
    },
    {
      "anonymous": false,
      "inputs": [
        {
          "indexed": true,
          "internalType": "uint256",
          "name": "matchId",
          "type": "uint256"
        },
        {
          "indexed": true,
          "internalType": "address",
          "name": "user",
          "type": "address"
        },
        {
          "indexed": false,
          "internalType": "uint8",
          "name": "team",
          "type": "uint8"
        },
        {
          "indexed": false,
          "internalType": "uint256",
          "name": "amount",
          "type": "uint256"
        }
      ],
      "name": "BetPlaced",
      "type": "event"
    },
    {
      "anonymous": false,
      "inputs": [
        {
          "indexed": true,
          "internalType": "address",
          "name": "admin",
          "type": "address"
        },
        {
          "indexed": false,
          "internalType": "uint256",
          "name": "amount",
          "type": "uint256"
        }
      ],
      "name": "EmergencyWithdraw",
      "type": "event"
    },
    {
      "anonymous": false,
      "inputs": [
        {
          "indexed": true,
          "internalType": "uint256",
          "name": "matchId",
          "type": "uint256"
        }
      ],
      "name": "MatchCreated",
      "type": "event"
    },
    {
      "anonymous": false,
      "inputs": [
        {
          "indexed": true,
          "internalType": "uint256",
          "name": "matchId",
          "type": "uint256"
        }
      ],
      "name": "MatchReset",
      "type": "event"
    },
    {
      "anonymous": false,
      "inputs": [
        {
          "indexed": true,
          "internalType": "uint256",
          "name": "matchId",
          "type": "uint256"
        },
        {
          "indexed": false,
          "internalType": "uint8",
          "name": "result",
          "type": "uint8"
        }
      ],
      "name": "MatchSettled",
      "type": "event"
    },
    {
      "anonymous": false,
      "inputs": [
        {
          "indexed": true,
          "internalType": "uint256",
          "name": "matchId",
          "type": "uint256"
        },
        {
          "indexed": true,
          "internalType": "address",
          "name": "user",
          "type": "address"
        },
        {
          "indexed": false,
          "internalType": "uint256",
          "name": "amount",
          "type": "uint256"
        }
      ],
      "name": "RewardClaimed",
      "type": "event"
    },
    {
      "anonymous": false,
      "inputs": [
        {
          "indexed": true,
          "internalType": "uint256",
          "name": "matchId",
          "type": "uint256"
        },
        {
          "indexed": false,
          "internalType": "uint256",
          "name": "amount",
          "type": "uint256"
        }
      ],
      "name": "RewardInjected",
      "type": "event"
    },
    {
      "inputs": [],
      "name": "ADMIN",
      "outputs": [
        {
          "internalType": "address",
          "name": "",
          "type": "address"
        }
      ],
      "stateMutability": "view",
      "type": "function"
    },
    {
      "inputs": [],
      "name": "CHZ",
      "outputs": [
        {
          "internalType": "contract IERC20",
          "name": "",
          "type": "address"
        }
      ],
      "stateMutability": "view",
      "type": "function"
    },
    {
      "inputs": [],
      "name": "LOSER_RATIO",
      "outputs": [
        {
          "internalType": "uint256",
          "name": "",
          "type": "uint256"
        }
      ],
      "stateMutability": "view",
      "type": "function"
    },
    {
      "inputs": [],
      "name": "MIN_BET",
      "outputs": [
        {
          "internalType": "uint256",
          "name": "",
          "type": "uint256"
        }
      ],
      "stateMutability": "view",
      "type": "function"
    },
    {
      "inputs": [],
      "name": "PLATFORM_FEE_PERCENT",
      "outputs": [
        {
          "internalType": "uint256",
          "name": "",
          "type": "uint256"
        }
      ],
      "stateMutability": "view",
      "type": "function"
    },
    {
      "inputs": [],
      "name": "RATIO_BASE",
      "outputs": [
        {
          "internalType": "uint256",
          "name": "",
          "type": "uint256"
        }
      ],
      "stateMutability": "view",
      "type": "function"
    },
    {
      "inputs": [],
      "name": "WINNER_RATIO",
      "outputs": [
        {
          "internalType": "uint256",
          "name": "",
          "type": "uint256"
        }
      ],
      "stateMutability": "view",
      "type": "function"
    },
    {
      "inputs": [
        {
          "internalType": "uint256",
          "name": "matchId",
          "type": "uint256"
        }
      ],
      "name": "claimReward",
      "outputs": [],
      "stateMutability": "nonpayable",
      "type": "function"
    },
    {
      "inputs": [
        {
          "internalType": "uint256",
          "name": "matchId",
          "type": "uint256"
        }
      ],
      "name": "createMatch",
      "outputs": [],
      "stateMutability": "nonpayable",
      "type": "function"
    },
    {
      "inputs": [],
      "name": "emergencyWithdraw",
      "outputs": [],
      "stateMutability": "nonpayable",
      "type": "function"
    },
    {
      "inputs": [
        {
          "internalType": "uint256",
          "name": "matchId",
          "type": "uint256"
        }
      ],
      "name": "getMatch",
      "outputs": [
        {
          "internalType": "uint256",
          "name": "",
          "type": "uint256"
        },
        {
          "internalType": "uint256",
          "name": "",
          "type": "uint256"
        },
        {
          "internalType": "uint256",
          "name": "",
          "type": "uint256"
        },
        {
          "internalType": "uint256",
          "name": "",
          "type": "uint256"
        },
        {
          "internalType": "uint8",
          "name": "",
          "type": "uint8"
        },
        {
          "internalType": "bool",
          "name": "",
          "type": "bool"
        },
        {
          "internalType": "bool",
          "name": "",
          "type": "bool"
        }
      ],
      "stateMutability": "view",
      "type": "function"
    },
    {
      "inputs": [
        {
          "internalType": "uint256",
          "name": "matchId",
          "type": "uint256"
        },
        {
          "internalType": "address",
          "name": "user",
          "type": "address"
        }
      ],
      "name": "getUserBet",
      "outputs": [
        {
          "internalType": "uint8",
          "name": "",
          "type": "uint8"
        },
        {
          "internalType": "uint256",
          "name": "",
          "type": "uint256"
        },
        {
          "internalType": "bool",
          "name": "",
          "type": "bool"
        }
      ],
      "stateMutability": "view",
      "type": "function"
    },
    {
      "inputs": [
        {
          "internalType": "uint256",
          "name": "matchId",
          "type": "uint256"
        },
        {
          "internalType": "uint256",
          "name": "amount",
          "type": "uint256"
        }
      ],
      "name": "injectReward",
      "outputs": [],
      "stateMutability": "nonpayable",
      "type": "function"
    },
    {
      "inputs": [
        {
          "internalType": "uint256",
          "name": "",
          "type": "uint256"
        }
      ],
      "name": "matchIds",
      "outputs": [
        {
          "internalType": "uint256",
          "name": "",
          "type": "uint256"
        }
      ],
      "stateMutability": "view",
      "type": "function"
    },
    {
      "inputs": [
        {
          "internalType": "uint256",
          "name": "matchId",
          "type": "uint256"
        },
        {
          "internalType": "uint8",
          "name": "team",
          "type": "uint8"
        },
        {
          "internalType": "uint256",
          "name": "amount",
          "type": "uint256"
        }
      ],
      "name": "placeBet",
      "outputs": [],
      "stateMutability": "nonpayable",
      "type": "function"
    },
    {
      "inputs": [
        {
          "internalType": "uint256",
          "name": "matchId",
          "type": "uint256"
        }
      ],
      "name": "resetMatch",
      "outputs": [],
      "stateMutability": "nonpayable",
      "type": "function"
    },
    {
      "inputs": [
        {
          "internalType": "uint256",
          "name": "matchId",
          "type": "uint256"
        },
        {
          "internalType": "uint8",
          "name": "result",
          "type": "uint8"
        }
      ],
      "name": "settleMatch",
      "outputs": [],
      "stateMutability": "nonpayable",
      "type": "function"
    }
  ],
  "bytecode": "0x60a06040523480156200001157600080fd5b5060405162002949380380620029498339818101604052810190620000379190620000e4565b60016000819055508073ffffffffffffffffffffffffffffffffffffffff1660808173ffffffffffffffffffffffffffffffffffffffff16815250505062000116565b600080fd5b600073ffffffffffffffffffffffffffffffffffffffff82169050919050565b6000620000ac826200007f565b9050919050565b620000be816200009f565b8114620000ca57600080fd5b50565b600081519050620000de81620000b3565b92915050565b600060208284031215620000fd57620000fc6200007a565b5b60006200010d84828501620000cd565b91505092915050565b6080516127ed6200015c600039600081816104fd015281816108f601528181610e9801528181610f8a0152818161149a015281816116ef01526117ce01526127ed6000f3fe608060405234801561001057600080fd5b506004361061010b5760003560e01c80638e416c93116100a2578063c03fb87c11610071578063c03fb87c14610298578063c11a5630146102ca578063cfa47501146102e8578063da866c4814610306578063db2e21bc146103225761010b565b80638e416c9314610226578063a09d0dce14610244578063ae169a5014610260578063b67a88f91461027c5761010b565b8063473cc0e3116100de578063473cc0e3146101b0578063560d52d4146101ce5780636540742f146101ec57806367ac47111461020a5761010b565b8063097cd232146101105780632a0acc6a1461012c57806336ff6a701461014a5780633d092b3d1461017a575b600080fd5b61012a600480360381019061012591906119b5565b61032c565b005b610134610645565b6040516101419190611a36565b60405180910390f35b610164600480360381019061015f9190611a51565b61065d565b6040516101719190611a8d565b60405180910390f35b610194600480360381019061018f9190611a51565b610681565b6040516101a79796959493929190611adf565b60405180910390f35b6101b8610706565b6040516101c59190611a8d565b60405180910390f35b6101d661070b565b6040516101e39190611a8d565b60405180910390f35b6101f4610710565b6040516102019190611a8d565b60405180910390f35b610224600480360381019061021f9190611a51565b61071c565b005b61022e6108f4565b60405161023b9190611bad565b60405180910390f35b61025e60048036038101906102599190611bf4565b610918565b005b61027a60048036038101906102759190611a51565b610b66565b005b61029660048036038101906102919190611a51565b6110c4565b005b6102b260048036038101906102ad9190611c60565b611219565b6040516102c193929190611ca0565b60405180910390f35b6102d26112ab565b6040516102df9190611a8d565b60405180910390f35b6102f06112b0565b6040516102fd9190611a8d565b60405180910390f35b610320600480360381019061031b9190611cd7565b6112b5565b005b61032a611661565b005b730d87d8e1def9ca4a5f1be181dc37c9ed9622c8d573ffffffffffffffffffffffffffffffffffffffff163373ffffffffffffffffffffffffffffffffffffffff16146103ae576040517f08c379a00000000000000000000000000000000000000000000000000000000081526004016103a590611d87565b60405180910390fd5b6103b661192a565b60006001600084815260200190815260200160002090506000816000015403610414576040517f08c379a000000000000000000000000000000000000000000000000000000000815260040161040b90611df3565b60405180910390fd5b8060040160029054906101000a900460ff1615610466576040517f08c379a000000000000000000000000000000000000000000000000000000000815260040161045d90611e5f565b60405180910390fd5b8060040160019054906101000a900460ff16156104b8576040517f08c379a00000000000000000000000000000000000000000000000000000000081526004016104af90611ecb565b60405180910390fd5b600082116104fb576040517f08c379a00000000000000000000000000000000000000000000000000000000081526004016104f290611f37565b60405180910390fd5b7f000000000000000000000000000000000000000000000000000000000000000073ffffffffffffffffffffffffffffffffffffffff166323b872dd3330856040518463ffffffff1660e01b815260040161055893929190611f57565b6020604051808303816000875af1158015610577573d6000803e3d6000fd5b505050506040513d601f19601f8201168201806040525081019061059b9190611fba565b6105da576040517f08c379a00000000000000000000000000000000000000000000000000000000081526004016105d190612033565b60405180910390fd5b81816003018190555060018160040160026101000a81548160ff021916908315150217905550827f64fe04cd466a6f785131eb5f5a13b4ec0a27176e96119127d78c6d1d2fa27274836040516106309190611a8d565b60405180910390a250610641611970565b5050565b730d87d8e1def9ca4a5f1be181dc37c9ed9622c8d581565b6002818154811061066d57600080fd5b906000526020600020016000915090505481565b600080600080600080600080600160008a8152602001908152602001600020905080600001548160010154826002015483600301548460040160009054906101000a900460ff168560040160019054906101000a900460ff168660040160029054906101000a900460ff16975097509750975097509750975050919395979092949650565b604681565b600581565b670de0b6b3a764000081565b730d87d8e1def9ca4a5f1be181dc37c9ed9622c8d573ffffffffffffffffffffffffffffffffffffffff163373ffffffffffffffffffffffffffffffffffffffff161461079e576040517f08c379a000000000000000000000000000000000000000000000000000000000815260040161079590611d87565b60405180910390fd5b600060016000838152602001908152602001600020905060008160000154036107fc576040517f08c379a00000000000000000000000000000000000000000000000000000000081526004016107f390611df3565b60405180910390fd5b8060040160019054906101000a900460ff1661084d576040517f08c379a00000000000000000000000000000000000000000000000000000000081526004016108449061209f565b60405180910390fd5b60008160010181905550600081600201819055506000816003018190555060008160040160006101000a81548160ff021916908360ff16021790555060008160040160016101000a81548160ff02191690831515021790555060008160040160026101000a81548160ff021916908315150217905550817f34bf18d7d934b69f239b96b5494fdf1a4b0e77589f153e9946bc9b6e28c0155960405160405180910390a25050565b7f000000000000000000000000000000000000000000000000000000000000000081565b730d87d8e1def9ca4a5f1be181dc37c9ed9622c8d573ffffffffffffffffffffffffffffffffffffffff163373ffffffffffffffffffffffffffffffffffffffff161461099a576040517f08c379a000000000000000000000000000000000000000000000000000000000815260040161099190611d87565b60405180910390fd5b600060016000848152602001908152602001600020905060008160000154036109f8576040517f08c379a00000000000000000000000000000000000000000000000000000000081526004016109ef90611df3565b60405180910390fd5b8060040160019054906101000a900460ff1615610a4a576040517f08c379a0000000000000000000000000000000000000000000000000000000008152600401610a419061210b565b60405180910390fd5b8060040160029054906101000a900460ff16610a9b576040517f08c379a0000000000000000000000000000000000000000000000000000000008152600401610a9290612177565b60405180910390fd5b60018260ff161480610ab0575060028260ff16145b610aef576040517f08c379a0000000000000000000000000000000000000000000000000000000008152600401610ae6906121e3565b60405180910390fd5b818160040160006101000a81548160ff021916908360ff16021790555060018160040160016101000a81548160ff021916908315150217905550827fd455389610296740be2995ecb3aeaacddad222c9aa352f485b677869a11ac4b783604051610b599190612203565b60405180910390a2505050565b610b6e61192a565b60006001600083815260200190815260200160002090506000816000015403610bcc576040517f08c379a0000000000000000000000000000000000000000000000000000000008152600401610bc390611df3565b60405180910390fd5b8060040160019054906101000a900460ff16610c1d576040517f08c379a0000000000000000000000000000000000000000000000000000000008152600401610c149061209f565b60405180910390fd5b60008160050160003373ffffffffffffffffffffffffffffffffffffffff1673ffffffffffffffffffffffffffffffffffffffff16815260200190815260200160002090506000816001015411610ca9576040517f08c379a0000000000000000000000000000000000000000000000000000000008152600401610ca09061226a565b60405180910390fd5b8060020160009054906101000a900460ff1615610cfb576040517f08c379a0000000000000000000000000000000000000000000000000000000008152600401610cf2906122d6565b60405180910390fd5b60018160020160006101000a81548160ff0219169083151502179055506000816001015490508260040160009054906101000a900460ff1660ff168260000160009054906101000a900460ff1660ff1603610dda576000606460468560030154610d659190612325565b610d6f9190612396565b9050600060018560040160009054906101000a900460ff1660ff1614610d99578460020154610d9f565b84600101545b90506000811115610dd35780846001015483610dbb9190612325565b610dc59190612396565b83610dd091906123c7565b92505b5050610e60565b60006064601e8560030154610def9190612325565b610df99190612396565b9050600060018560040160009054906101000a900460ff1660ff1614610e23578460010154610e29565b84600201545b90506000811115610e5d5780846001015483610e459190612325565b610e4f9190612396565b83610e5a91906123c7565b92505b50505b60006064600583610e719190612325565b610e7b9190612396565b905060008183610e8b91906123fb565b90506000821115610f88577f000000000000000000000000000000000000000000000000000000000000000073ffffffffffffffffffffffffffffffffffffffff1663a9059cbb730d87d8e1def9ca4a5f1be181dc37c9ed9622c8d5846040518363ffffffff1660e01b8152600401610f0592919061242f565b6020604051808303816000875af1158015610f24573d6000803e3d6000fd5b505050506040513d601f19601f82011682018060405250810190610f489190611fba565b610f87576040517f08c379a0000000000000000000000000000000000000000000000000000000008152600401610f7e906124a4565b60405180910390fd5b5b7f000000000000000000000000000000000000000000000000000000000000000073ffffffffffffffffffffffffffffffffffffffff1663a9059cbb33836040518363ffffffff1660e01b8152600401610fe392919061242f565b6020604051808303816000875af1158015611002573d6000803e3d6000fd5b505050506040513d601f19601f820116820180604052508101906110269190611fba565b611065576040517f08c379a000000000000000000000000000000000000000000000000000000000815260040161105c90612510565b60405180910390fd5b3373ffffffffffffffffffffffffffffffffffffffff16867f24b5efa61dd1cfc659205a97fb8ed868f3cb8c81922bab2b96423e5de1de2cb7836040516110ac9190611a8d565b60405180910390a350505050506110c1611970565b50565b730d87d8e1def9ca4a5f1be181dc37c9ed9622c8d573ffffffffffffffffffffffffffffffffffffffff163373ffffffffffffffffffffffffffffffffffffffff1614611146576040517f08c379a000000000000000000000000000000000000000000000000000000000815260040161113d90611d87565b60405180910390fd5b600060016000838152602001908152602001600020600001541461119f576040517f08c379a00000000000000000000000000000000000000000000000000000000081526004016111969061257c565b60405180910390fd5b60006001600083815260200190815260200160002090508181600001819055506002829080600181540180825580915050600190039060005260206000200160009091909190915055817f029c42c1ae2efa2f406e0681e1f940dde3568cd96a1ecf3715dc1191f0d3edbc60405160405180910390a25050565b6000806000806001600087815260200190815260200160002060050160008673ffffffffffffffffffffffffffffffffffffffff1673ffffffffffffffffffffffffffffffffffffffff16815260200190815260200160002090508060000160009054906101000a900460ff1681600101548260020160009054906101000a900460ff16935093509350509250925092565b606481565b601e81565b6112bd61192a565b60018260ff1614806112d2575060028260ff16145b611311576040517f08c379a0000000000000000000000000000000000000000000000000000000008152600401611308906125e8565b60405180910390fd5b670de0b6b3a764000081101561135c576040517f08c379a000000000000000000000000000000000000000000000000000000000815260040161135390612654565b60405180910390fd5b600060016000858152602001908152602001600020905060008160000154036113ba576040517f08c379a00000000000000000000000000000000000000000000000000000000081526004016113b190611df3565b60405180910390fd5b8060040160019054906101000a900460ff161561140c576040517f08c379a000000000000000000000000000000000000000000000000000000000815260040161140390611ecb565b60405180910390fd5b60008160050160003373ffffffffffffffffffffffffffffffffffffffff1673ffffffffffffffffffffffffffffffffffffffff16815260200190815260200160002090506000816001015414611498576040517f08c379a000000000000000000000000000000000000000000000000000000000815260040161148f906126c0565b60405180910390fd5b7f000000000000000000000000000000000000000000000000000000000000000073ffffffffffffffffffffffffffffffffffffffff166323b872dd3330866040518463ffffffff1660e01b81526004016114f593929190611f57565b6020604051808303816000875af1158015611514573d6000803e3d6000fd5b505050506040513d601f19601f820116820180604052508101906115389190611fba565b611577576040517f08c379a000000000000000000000000000000000000000000000000000000000815260040161156e90612033565b60405180910390fd5b838160000160006101000a81548160ff021916908360ff16021790555082816001018190555060008160020160006101000a81548160ff02191690831515021790555060018460ff16036115e557828260010160008282546115d991906123c7565b92505081905550611601565b828260020160008282546115f991906123c7565b925050819055505b3373ffffffffffffffffffffffffffffffffffffffff16857f4f1eed5e863a822b0f9eb960dfdab2cc5a99beec4b191f2a7a9c7e28e5a15524868660405161164a9291906126e0565b60405180910390a3505061165c611970565b505050565b730d87d8e1def9ca4a5f1be181dc37c9ed9622c8d573ffffffffffffffffffffffffffffffffffffffff163373ffffffffffffffffffffffffffffffffffffffff16146116e3576040517f08c379a00000000000000000000000000000000000000000000000000000000081526004016116da90611d87565b60405180910390fd5b6116eb61192a565b60007f000000000000000000000000000000000000000000000000000000000000000073ffffffffffffffffffffffffffffffffffffffff166370a08231306040518263ffffffff1660e01b81526004016117469190611a36565b602060405180830381865afa158015611763573d6000803e3d6000fd5b505050506040513d601f19601f82011682018060405250810190611787919061271e565b9050600081116117cc576040517f08c379a00000000000000000000000000000000000000000000000000000000081526004016117c390612797565b60405180910390fd5b7f000000000000000000000000000000000000000000000000000000000000000073ffffffffffffffffffffffffffffffffffffffff1663a9059cbb730d87d8e1def9ca4a5f1be181dc37c9ed9622c8d5836040518363ffffffff1660e01b815260040161183b92919061242f565b6020604051808303816000875af115801561185a573d6000803e3d6000fd5b505050506040513d601f19601f8201168201806040525081019061187e9190611fba565b6118bd576040517f08c379a00000000000000000000000000000000000000000000000000000000081526004016118b490612033565b60405180910390fd5b730d87d8e1def9ca4a5f1be181dc37c9ed9622c8d573ffffffffffffffffffffffffffffffffffffffff167f5fafa99d0643513820be26656b45130b01e1c03062e1266bf36f88cbd3bd9695826040516119179190611a8d565b60405180910390a250611928611970565b565b600260005403611966576040517f3ee5aeb500000000000000000000000000000000000000000000000000000000815260040160405180910390fd5b6002600081905550565b6001600081905550565b600080fd5b6000819050919050565b6119928161197f565b811461199d57600080fd5b50565b6000813590506119af81611989565b92915050565b600080604083850312156119cc576119cb61197a565b5b60006119da858286016119a0565b92505060206119eb858286016119a0565b9150509250929050565b600073ffffffffffffffffffffffffffffffffffffffff82169050919050565b6000611a20826119f5565b9050919050565b611a3081611a15565b82525050565b6000602082019050611a4b6000830184611a27565b92915050565b600060208284031215611a6757611a6661197a565b5b6000611a75848285016119a0565b91505092915050565b611a878161197f565b82525050565b6000602082019050611aa26000830184611a7e565b92915050565b600060ff82169050919050565b611abe81611aa8565b82525050565b60008115159050919050565b611ad981611ac4565b82525050565b600060e082019050611af4600083018a611a7e565b611b016020830189611a7e565b611b0e6040830188611a7e565b611b1b6060830187611a7e565b611b286080830186611ab5565b611b3560a0830185611ad0565b611b4260c0830184611ad0565b98975050505050505050565b6000819050919050565b6000611b73611b6e611b69846119f5565b611b4e565b6119f5565b9050919050565b6000611b8582611b58565b9050919050565b6000611b9782611b7a565b9050919050565b611ba781611b8c565b82525050565b6000602082019050611bc26000830184611b9e565b92915050565b611bd181611aa8565b8114611bdc57600080fd5b50565b600081359050611bee81611bc8565b92915050565b60008060408385031215611c0b57611c0a61197a565b5b6000611c19858286016119a0565b9250506020611c2a85828601611bdf565b9150509250929050565b611c3d81611a15565b8114611c4857600080fd5b50565b600081359050611c5a81611c34565b92915050565b60008060408385031215611c7757611c7661197a565b5b6000611c85858286016119a0565b9250506020611c9685828601611c4b565b9150509250929050565b6000606082019050611cb56000830186611ab5565b611cc26020830185611a7e565b611ccf6040830184611ad0565b949350505050565b600080600060608486031215611cf057611cef61197a565b5b6000611cfe868287016119a0565b9350506020611d0f86828701611bdf565b9250506040611d20868287016119a0565b9150509250925092565b600082825260208201905092915050565b7f4f6e6c792061646d696e00000000000000000000000000000000000000000000600082015250565b6000611d71600a83611d2a565b9150611d7c82611d3b565b602082019050919050565b60006020820190508181036000830152611da081611d64565b9050919050565b7f4d61746368206e6f742065786973740000000000000000000000000000000000600082015250565b6000611ddd600f83611d2a565b9150611de882611da7565b602082019050919050565b60006020820190508181036000830152611e0c81611dd0565b9050919050565b7f416c726561647920696e6a656374656400000000000000000000000000000000600082015250565b6000611e49601083611d2a565b9150611e5482611e13565b602082019050919050565b60006020820190508181036000830152611e7881611e3c565b9050919050565b7f4d6174636820736574746c656400000000000000000000000000000000000000600082015250565b6000611eb5600d83611d2a565b9150611ec082611e7f565b602082019050919050565b60006020820190508181036000830152611ee481611ea8565b9050919050565b7f5a65726f20616d6f756e74000000000000000000000000000000000000000000600082015250565b6000611f21600b83611d2a565b9150611f2c82611eeb565b602082019050919050565b60006020820190508181036000830152611f5081611f14565b9050919050565b6000606082019050611f6c6000830186611a27565b611f796020830185611a27565b611f866040830184611a7e565b949350505050565b611f9781611ac4565b8114611fa257600080fd5b50565b600081519050611fb481611f8e565b92915050565b600060208284031215611fd057611fcf61197a565b5b6000611fde84828501611fa5565b91505092915050565b7f5472616e73666572206661696c65640000000000000000000000000000000000600082015250565b600061201d600f83611d2a565b915061202882611fe7565b602082019050919050565b6000602082019050818103600083015261204c81612010565b9050919050565b7f4e6f7420736574746c6564000000000000000000000000000000000000000000600082015250565b6000612089600b83611d2a565b915061209482612053565b602082019050919050565b600060208201905081810360008301526120b88161207c565b9050919050565b7f416c726561647920736574746c65640000000000000000000000000000000000600082015250565b60006120f5600f83611d2a565b9150612100826120bf565b602082019050919050565b60006020820190508181036000830152612124816120e8565b9050919050565b7f526577617264206e6f7420696e6a656374656400000000000000000000000000600082015250565b6000612161601383611d2a565b915061216c8261212b565b602082019050919050565b6000602082019050818103600083015261219081612154565b9050919050565b7f496e76616c696420726573756c74000000000000000000000000000000000000600082015250565b60006121cd600e83611d2a565b91506121d882612197565b602082019050919050565b600060208201905081810360008301526121fc816121c0565b9050919050565b60006020820190506122186000830184611ab5565b92915050565b7f4e6f206265740000000000000000000000000000000000000000000000000000600082015250565b6000612254600683611d2a565b915061225f8261221e565b602082019050919050565b6000602082019050818103600083015261228381612247565b9050919050565b7f416c726561647920636c61696d65640000000000000000000000000000000000600082015250565b60006122c0600f83611d2a565b91506122cb8261228a565b602082019050919050565b600060208201905081810360008301526122ef816122b3565b9050919050565b7f4e487b7100000000000000000000000000000000000000000000000000000000600052601160045260246000fd5b60006123308261197f565b915061233b8361197f565b92508282026123498161197f565b915082820484148315176123605761235f6122f6565b5b5092915050565b7f4e487b7100000000000000000000000000000000000000000000000000000000600052601260045260246000fd5b60006123a18261197f565b91506123ac8361197f565b9250826123bc576123bb612367565b5b828204905092915050565b60006123d28261197f565b91506123dd8361197f565b92508282019050808211156123f5576123f46122f6565b5b92915050565b60006124068261197f565b91506124118361197f565b9250828203905081811115612429576124286122f6565b5b92915050565b60006040820190506124446000830185611a27565b6124516020830184611a7e565b9392505050565b7f466565207472616e73666572206661696c656400000000000000000000000000600082015250565b600061248e601383611d2a565b915061249982612458565b602082019050919050565b600060208201905081810360008301526124bd81612481565b9050919050565b7f526577617264207472616e73666572206661696c656400000000000000000000600082015250565b60006124fa601683611d2a565b9150612505826124c4565b602082019050919050565b60006020820190508181036000830152612529816124ed565b9050919050565b7f4d61746368206578697374730000000000000000000000000000000000000000600082015250565b6000612566600c83611d2a565b915061257182612530565b602082019050919050565b6000602082019050818103600083015261259581612559565b9050919050565b7f496e76616c6964207465616d0000000000000000000000000000000000000000600082015250565b60006125d2600c83611d2a565b91506125dd8261259c565b602082019050919050565b60006020820190508181036000830152612601816125c5565b9050919050565b7f42657420746f6f20736d616c6c00000000000000000000000000000000000000600082015250565b600061263e600d83611d2a565b915061264982612608565b602082019050919050565b6000602082019050818103600083015261266d81612631565b9050919050565b7f416c726561647920626574000000000000000000000000000000000000000000600082015250565b60006126aa600b83611d2a565b91506126b582612674565b602082019050919050565b600060208201905081810360008301526126d98161269d565b9050919050565b60006040820190506126f56000830185611ab5565b6127026020830184611a7e565b9392505050565b60008151905061271881611989565b92915050565b6000602082840312156127345761273361197a565b5b600061274284828501612709565b91505092915050565b7f4e6f2066756e6473000000000000000000000000000000000000000000000000600082015250565b6000612781600883611d2a565b915061278c8261274b565b602082019050919050565b600060208201905081810360008301526127b081612774565b905091905056fea26469706673582212205d822bfdcce43a20c395e347edbbd4d41fe8344bf0ce04d5a39180b880aa310e64736f6c63430008140033",
  "linkReferences": {},
  "deployedLinkReferences": {}
}