{
  "_format": "hh-sol-artifact-1",
  "contractName": "FanForcePredictionDemo",
  "sourceName": "contracts/FanForcePredictionDemo.sol",
  "abi": [
    {
      "inputs": [],
      "stateMutability": "nonpayable",
      "type": "constructor"
    },
    {
      "inputs": [],
      "name": "ReentrancyGuardReentrantCall",
      "type": "error"
    },
    {
      "anonymous": false,
      "inputs": [
        {
          "indexed": true,
          "internalType": "uint256",
          "name": "matchId",
          "type": "uint256"
        },
        {
          "indexed": true,
          "internalType": "address",
          "name": "user",
          "type": "address"
        },
        {
          "indexed": false,
          "internalType": "uint8",
          "name": "team",
          "type": "uint8"
        },
        {
          "indexed": false,
          "internalType": "uint256",
          "name": "amount",
          "type": "uint256"
        }
      ],
      "name": "BetPlaced",
      "type": "event"
    },
    {
      "anonymous": false,
      "inputs": [
        {
          "indexed": true,
          "internalType": "address",
          "name": "admin",
          "type": "address"
        },
        {
          "indexed": false,
          "internalType": "uint256",
          "name": "amount",
          "type": "uint256"
        }
      ],
      "name": "EmergencyWithdraw",
      "type": "event"
    },
    {
      "anonymous": false,
      "inputs": [
        {
          "indexed": true,
          "internalType": "uint256",
          "name": "matchId",
          "type": "uint256"
        }
      ],
      "name": "MatchCreated",
      "type": "event"
    },
    {
      "anonymous": false,
      "inputs": [
        {
          "indexed": true,
          "internalType": "uint256",
          "name": "matchId",
          "type": "uint256"
        }
      ],
      "name": "MatchReset",
      "type": "event"
    },
    {
      "anonymous": false,
      "inputs": [
        {
          "indexed": true,
          "internalType": "uint256",
          "name": "matchId",
          "type": "uint256"
        },
        {
          "indexed": false,
          "internalType": "uint8",
          "name": "result",
          "type": "uint8"
        }
      ],
      "name": "MatchSettled",
      "type": "event"
    },
    {
      "anonymous": false,
      "inputs": [
        {
          "indexed": true,
          "internalType": "uint256",
          "name": "matchId",
          "type": "uint256"
        },
        {
          "indexed": true,
          "internalType": "address",
          "name": "user",
          "type": "address"
        },
        {
          "indexed": false,
          "internalType": "uint256",
          "name": "amount",
          "type": "uint256"
        }
      ],
      "name": "RewardClaimed",
      "type": "event"
    },
    {
      "anonymous": false,
      "inputs": [
        {
          "indexed": true,
          "internalType": "uint256",
          "name": "matchId",
          "type": "uint256"
        },
        {
          "indexed": false,
          "internalType": "uint256",
          "name": "amount",
          "type": "uint256"
        }
      ],
      "name": "RewardInjected",
      "type": "event"
    },
    {
      "inputs": [],
      "name": "ADMIN",
      "outputs": [
        {
          "internalType": "address",
          "name": "",
          "type": "address"
        }
      ],
      "stateMutability": "view",
      "type": "function"
    },
    {
      "inputs": [],
      "name": "LOSER_RATIO",
      "outputs": [
        {
          "internalType": "uint256",
          "name": "",
          "type": "uint256"
        }
      ],
      "stateMutability": "view",
      "type": "function"
    },
    {
      "inputs": [],
      "name": "MIN_BET",
      "outputs": [
        {
          "internalType": "uint256",
          "name": "",
          "type": "uint256"
        }
      ],
      "stateMutability": "view",
      "type": "function"
    },
    {
      "inputs": [],
      "name": "PLATFORM_FEE_PERCENT",
      "outputs": [
        {
          "internalType": "uint256",
          "name": "",
          "type": "uint256"
        }
      ],
      "stateMutability": "view",
      "type": "function"
    },
    {
      "inputs": [],
      "name": "RATIO_BASE",
      "outputs": [
        {
          "internalType": "uint256",
          "name": "",
          "type": "uint256"
        }
      ],
      "stateMutability": "view",
      "type": "function"
    },
    {
      "inputs": [],
      "name": "WINNER_RATIO",
      "outputs": [
        {
          "internalType": "uint256",
          "name": "",
          "type": "uint256"
        }
      ],
      "stateMutability": "view",
      "type": "function"
    },
    {
      "inputs": [
        {
          "internalType": "uint256",
          "name": "matchId",
          "type": "uint256"
        }
      ],
      "name": "claimReward",
      "outputs": [],
      "stateMutability": "nonpayable",
      "type": "function"
    },
    {
      "inputs": [
        {
          "internalType": "uint256",
          "name": "matchId",
          "type": "uint256"
        }
      ],
      "name": "createMatch",
      "outputs": [],
      "stateMutability": "nonpayable",
      "type": "function"
    },
    {
      "inputs": [],
      "name": "emergencyWithdraw",
      "outputs": [],
      "stateMutability": "nonpayable",
      "type": "function"
    },
    {
      "inputs": [
        {
          "internalType": "uint256",
          "name": "matchId",
          "type": "uint256"
        }
      ],
      "name": "getMatch",
      "outputs": [
        {
          "internalType": "uint256",
          "name": "",
          "type": "uint256"
        },
        {
          "internalType": "uint256",
          "name": "",
          "type": "uint256"
        },
        {
          "internalType": "uint256",
          "name": "",
          "type": "uint256"
        },
        {
          "internalType": "uint256",
          "name": "",
          "type": "uint256"
        },
        {
          "internalType": "uint8",
          "name": "",
          "type": "uint8"
        },
        {
          "internalType": "bool",
          "name": "",
          "type": "bool"
        },
        {
          "internalType": "bool",
          "name": "",
          "type": "bool"
        }
      ],
      "stateMutability": "view",
      "type": "function"
    },
    {
      "inputs": [
        {
          "internalType": "uint256",
          "name": "matchId",
          "type": "uint256"
        },
        {
          "internalType": "address",
          "name": "user",
          "type": "address"
        }
      ],
      "name": "getUserBet",
      "outputs": [
        {
          "internalType": "uint8",
          "name": "",
          "type": "uint8"
        },
        {
          "internalType": "uint256",
          "name": "",
          "type": "uint256"
        },
        {
          "internalType": "bool",
          "name": "",
          "type": "bool"
        }
      ],
      "stateMutability": "view",
      "type": "function"
    },
    {
      "inputs": [
        {
          "internalType": "uint256",
          "name": "matchId",
          "type": "uint256"
        },
        {
          "internalType": "uint256",
          "name": "amount",
          "type": "uint256"
        }
      ],
      "name": "injectReward",
      "outputs": [],
      "stateMutability": "payable",
      "type": "function"
    },
    {
      "inputs": [
        {
          "internalType": "uint256",
          "name": "",
          "type": "uint256"
        }
      ],
      "name": "matchIds",
      "outputs": [
        {
          "internalType": "uint256",
          "name": "",
          "type": "uint256"
        }
      ],
      "stateMutability": "view",
      "type": "function"
    },
    {
      "inputs": [
        {
          "internalType": "uint256",
          "name": "matchId",
          "type": "uint256"
        },
        {
          "internalType": "uint8",
          "name": "team",
          "type": "uint8"
        },
        {
          "internalType": "uint256",
          "name": "amount",
          "type": "uint256"
        }
      ],
      "name": "placeBet",
      "outputs": [],
      "stateMutability": "payable",
      "type": "function"
    },
    {
      "inputs": [
        {
          "internalType": "uint256",
          "name": "matchId",
          "type": "uint256"
        }
      ],
      "name": "resetMatch",
      "outputs": [],
      "stateMutability": "nonpayable",
      "type": "function"
    },
    {
      "inputs": [
        {
          "internalType": "uint256",
          "name": "matchId",
          "type": "uint256"
        },
        {
          "internalType": "uint8",
          "name": "result",
          "type": "uint8"
        }
      ],
      "name": "settleMatch",
      "outputs": [],
      "stateMutability": "nonpayable",
      "type": "function"
    }
  ],
  "bytecode": "0x608060405234801561001057600080fd5b506001600081905550612523806100286000396000f3fe6080604052600436106100f35760003560e01c8063a09d0dce1161008a578063c11a563011610059578063c11a563014610323578063cfa475011461034e578063da866c4814610379578063db2e21bc14610395576100f3565b8063a09d0dce14610269578063ae169a5014610292578063b67a88f9146102bb578063c03fb87c146102e4576100f3565b8063473cc0e3116100c6578063473cc0e3146101bf578063560d52d4146101ea5780636540742f1461021557806367ac471114610240576100f3565b8063097cd232146100f85780632a0acc6a1461011457806336ff6a701461013f5780633d092b3d1461017c575b600080fd5b610112600480360381019061010d91906117ae565b6103ac565b005b34801561012057600080fd5b50610129610628565b604051610136919061182f565b60405180910390f35b34801561014b57600080fd5b506101666004803603810190610161919061184a565b610640565b6040516101739190611886565b60405180910390f35b34801561018857600080fd5b506101a3600480360381019061019e919061184a565b610664565b6040516101b697969594939291906118d8565b60405180910390f35b3480156101cb57600080fd5b506101d46106e9565b6040516101e19190611886565b60405180910390f35b3480156101f657600080fd5b506101ff6106ee565b60405161020c9190611886565b60405180910390f35b34801561022157600080fd5b5061022a6106f3565b6040516102379190611886565b60405180910390f35b34801561024c57600080fd5b506102676004803603810190610262919061184a565b6106ff565b005b34801561027557600080fd5b50610290600480360381019061028b9190611973565b6108d7565b005b34801561029e57600080fd5b506102b960048036038101906102b4919061184a565b610b25565b005b3480156102c757600080fd5b506102e260048036038101906102dd919061184a565b611023565b005b3480156102f057600080fd5b5061030b600480360381019061030691906119df565b611178565b60405161031a93929190611a1f565b60405180910390f35b34801561032f57600080fd5b5061033861120a565b6040516103459190611886565b60405180910390f35b34801561035a57600080fd5b5061036361120f565b6040516103709190611886565b60405180910390f35b610393600480360381019061038e9190611a56565b611214565b005b3480156103a157600080fd5b506103aa611523565b005b730d87d8e1def9ca4a5f1be181dc37c9ed9622c8d573ffffffffffffffffffffffffffffffffffffffff163373ffffffffffffffffffffffffffffffffffffffff161461042e576040517f08c379a000000000000000000000000000000000000000000000000000000000815260040161042590611b06565b60405180910390fd5b610436611723565b60006001600084815260200190815260200160002090506000816000015403610494576040517f08c379a000000000000000000000000000000000000000000000000000000000815260040161048b90611b72565b60405180910390fd5b8060040160029054906101000a900460ff16156104e6576040517f08c379a00000000000000000000000000000000000000000000000000000000081526004016104dd90611bde565b60405180910390fd5b8060040160019054906101000a900460ff1615610538576040517f08c379a000000000000000000000000000000000000000000000000000000000815260040161052f90611c4a565b60405180910390fd5b6000821161057b576040517f08c379a000000000000000000000000000000000000000000000000000000000815260040161057290611cb6565b60405180910390fd5b8134146105bd576040517f08c379a00000000000000000000000000000000000000000000000000000000081526004016105b490611d22565b60405180910390fd5b81816003018190555060018160040160026101000a81548160ff021916908315150217905550827f64fe04cd466a6f785131eb5f5a13b4ec0a27176e96119127d78c6d1d2fa27274836040516106139190611886565b60405180910390a250610624611769565b5050565b730d87d8e1def9ca4a5f1be181dc37c9ed9622c8d581565b6002818154811061065057600080fd5b906000526020600020016000915090505481565b600080600080600080600080600160008a8152602001908152602001600020905080600001548160010154826002015483600301548460040160009054906101000a900460ff168560040160019054906101000a900460ff168660040160029054906101000a900460ff16975097509750975097509750975050919395979092949650565b604681565b600581565b670de0b6b3a764000081565b730d87d8e1def9ca4a5f1be181dc37c9ed9622c8d573ffffffffffffffffffffffffffffffffffffffff163373ffffffffffffffffffffffffffffffffffffffff1614610781576040517f08c379a000000000000000000000000000000000000000000000000000000000815260040161077890611b06565b60405180910390fd5b600060016000838152602001908152602001600020905060008160000154036107df576040517f08c379a00000000000000000000000000000000000000000000000000000000081526004016107d690611b72565b60405180910390fd5b8060040160019054906101000a900460ff16610830576040517f08c379a000000000000000000000000000000000000000000000000000000000815260040161082790611d8e565b60405180910390fd5b60008160010181905550600081600201819055506000816003018190555060008160040160006101000a81548160ff021916908360ff16021790555060008160040160016101000a81548160ff02191690831515021790555060008160040160026101000a81548160ff021916908315150217905550817f34bf18d7d934b69f239b96b5494fdf1a4b0e77589f153e9946bc9b6e28c0155960405160405180910390a25050565b730d87d8e1def9ca4a5f1be181dc37c9ed9622c8d573ffffffffffffffffffffffffffffffffffffffff163373ffffffffffffffffffffffffffffffffffffffff1614610959576040517f08c379a000000000000000000000000000000000000000000000000000000000815260040161095090611b06565b60405180910390fd5b600060016000848152602001908152602001600020905060008160000154036109b7576040517f08c379a00000000000000000000000000000000000000000000000000000000081526004016109ae90611b72565b60405180910390fd5b8060040160019054906101000a900460ff1615610a09576040517f08c379a0000000000000000000000000000000000000000000000000000000008152600401610a0090611dfa565b60405180910390fd5b8060040160029054906101000a900460ff16610a5a576040517f08c379a0000000000000000000000000000000000000000000000000000000008152600401610a5190611e66565b60405180910390fd5b60018260ff161480610a6f575060028260ff16145b610aae576040517f08c379a0000000000000000000000000000000000000000000000000000000008152600401610aa590611ed2565b60405180910390fd5b818160040160006101000a81548160ff021916908360ff16021790555060018160040160016101000a81548160ff021916908315150217905550827fd455389610296740be2995ecb3aeaacddad222c9aa352f485b677869a11ac4b783604051610b189190611ef2565b60405180910390a2505050565b610b2d611723565b60006001600083815260200190815260200160002090506000816000015403610b8b576040517f08c379a0000000000000000000000000000000000000000000000000000000008152600401610b8290611b72565b60405180910390fd5b8060040160019054906101000a900460ff16610bdc576040517f08c379a0000000000000000000000000000000000000000000000000000000008152600401610bd390611d8e565b60405180910390fd5b60008160050160003373ffffffffffffffffffffffffffffffffffffffff1673ffffffffffffffffffffffffffffffffffffffff16815260200190815260200160002090506000816001015411610c68576040517f08c379a0000000000000000000000000000000000000000000000000000000008152600401610c5f90611f59565b60405180910390fd5b8060020160009054906101000a900460ff1615610cba576040517f08c379a0000000000000000000000000000000000000000000000000000000008152600401610cb190611fc5565b60405180910390fd5b60018160020160006101000a81548160ff0219169083151502179055506000816001015490508260040160009054906101000a900460ff1660ff168260000160009054906101000a900460ff1660ff1603610d99576000606460468560030154610d249190612014565b610d2e9190612085565b9050600060018560040160009054906101000a900460ff1660ff1614610d58578460020154610d5e565b84600101545b90506000811115610d925780846001015483610d7a9190612014565b610d849190612085565b83610d8f91906120b6565b92505b5050610e1f565b60006064601e8560030154610dae9190612014565b610db89190612085565b9050600060018560040160009054906101000a900460ff1660ff1614610de2578460010154610de8565b84600201545b90506000811115610e1c5780846001015483610e049190612014565b610e0e9190612085565b83610e1991906120b6565b92505b50505b60006064600583610e309190612014565b610e3a9190612085565b905060008183610e4a91906120ea565b90506000821115610f17576000730d87d8e1def9ca4a5f1be181dc37c9ed9622c8d573ffffffffffffffffffffffffffffffffffffffff1683604051610e8f9061214f565b60006040518083038185875af1925050503d8060008114610ecc576040519150601f19603f3d011682016040523d82523d6000602084013e610ed1565b606091505b5050905080610f15576040517f08c379a0000000000000000000000000000000000000000000000000000000008152600401610f0c906121b0565b60405180910390fd5b505b60003373ffffffffffffffffffffffffffffffffffffffff1682604051610f3d9061214f565b60006040518083038185875af1925050503d8060008114610f7a576040519150601f19603f3d011682016040523d82523d6000602084013e610f7f565b606091505b5050905080610fc3576040517f08c379a0000000000000000000000000000000000000000000000000000000008152600401610fba9061221c565b60405180910390fd5b3373ffffffffffffffffffffffffffffffffffffffff16877f24b5efa61dd1cfc659205a97fb8ed868f3cb8c81922bab2b96423e5de1de2cb78460405161100a9190611886565b60405180910390a3505050505050611020611769565b50565b730d87d8e1def9ca4a5f1be181dc37c9ed9622c8d573ffffffffffffffffffffffffffffffffffffffff163373ffffffffffffffffffffffffffffffffffffffff16146110a5576040517f08c379a000000000000000000000000000000000000000000000000000000000815260040161109c90611b06565b60405180910390fd5b60006001600083815260200190815260200160002060000154146110fe576040517f08c379a00000000000000000000000000000000000000000000000000000000081526004016110f590612288565b60405180910390fd5b60006001600083815260200190815260200160002090508181600001819055506002829080600181540180825580915050600190039060005260206000200160009091909190915055817f029c42c1ae2efa2f406e0681e1f940dde3568cd96a1ecf3715dc1191f0d3edbc60405160405180910390a25050565b6000806000806001600087815260200190815260200160002060050160008673ffffffffffffffffffffffffffffffffffffffff1673ffffffffffffffffffffffffffffffffffffffff16815260200190815260200160002090508060000160009054906101000a900460ff1681600101548260020160009054906101000a900460ff16935093509350509250925092565b606481565b601e81565b61121c611723565b60018260ff161480611231575060028260ff16145b611270576040517f08c379a0000000000000000000000000000000000000000000000000000000008152600401611267906122f4565b60405180910390fd5b670de0b6b3a76400008110156112bb576040517f08c379a00000000000000000000000000000000000000000000000000000000081526004016112b290612360565b60405180910390fd5b8034146112fd576040517f08c379a00000000000000000000000000000000000000000000000000000000081526004016112f490611d22565b60405180910390fd5b6000600160008581526020019081526020016000209050600081600001540361135b576040517f08c379a000000000000000000000000000000000000000000000000000000000815260040161135290611b72565b60405180910390fd5b8060040160019054906101000a900460ff16156113ad576040517f08c379a00000000000000000000000000000000000000000000000000000000081526004016113a490611c4a565b60405180910390fd5b60008160050160003373ffffffffffffffffffffffffffffffffffffffff1673ffffffffffffffffffffffffffffffffffffffff16815260200190815260200160002090506000816001015414611439576040517f08c379a0000000000000000000000000000000000000000000000000000000008152600401611430906123cc565b60405180910390fd5b838160000160006101000a81548160ff021916908360ff16021790555082816001018190555060008160020160006101000a81548160ff02191690831515021790555060018460ff16036114a7578282600101600082825461149b91906120b6565b925050819055506114c3565b828260020160008282546114bb91906120b6565b925050819055505b3373ffffffffffffffffffffffffffffffffffffffff16857f4f1eed5e863a822b0f9eb960dfdab2cc5a99beec4b191f2a7a9c7e28e5a15524868660405161150c9291906123ec565b60405180910390a3505061151e611769565b505050565b730d87d8e1def9ca4a5f1be181dc37c9ed9622c8d573ffffffffffffffffffffffffffffffffffffffff163373ffffffffffffffffffffffffffffffffffffffff16146115a5576040517f08c379a000000000000000000000000000000000000000000000000000000000815260040161159c90611b06565b60405180910390fd5b6115ad611723565b6000479050600081116115f5576040517f08c379a00000000000000000000000000000000000000000000000000000000081526004016115ec90612461565b60405180910390fd5b6000730d87d8e1def9ca4a5f1be181dc37c9ed9622c8d573ffffffffffffffffffffffffffffffffffffffff168260405161162f9061214f565b60006040518083038185875af1925050503d806000811461166c576040519150601f19603f3d011682016040523d82523d6000602084013e611671565b606091505b50509050806116b5576040517f08c379a00000000000000000000000000000000000000000000000000000000081526004016116ac906124cd565b60405180910390fd5b730d87d8e1def9ca4a5f1be181dc37c9ed9622c8d573ffffffffffffffffffffffffffffffffffffffff167f5fafa99d0643513820be26656b45130b01e1c03062e1266bf36f88cbd3bd96958360405161170f9190611886565b60405180910390a25050611721611769565b565b60026000540361175f576040517f3ee5aeb500000000000000000000000000000000000000000000000000000000815260040160405180910390fd5b6002600081905550565b6001600081905550565b600080fd5b6000819050919050565b61178b81611778565b811461179657600080fd5b50565b6000813590506117a881611782565b92915050565b600080604083850312156117c5576117c4611773565b5b60006117d385828601611799565b92505060206117e485828601611799565b9150509250929050565b600073ffffffffffffffffffffffffffffffffffffffff82169050919050565b6000611819826117ee565b9050919050565b6118298161180e565b82525050565b60006020820190506118446000830184611820565b92915050565b6000602082840312156118605761185f611773565b5b600061186e84828501611799565b91505092915050565b61188081611778565b82525050565b600060208201905061189b6000830184611877565b92915050565b600060ff82169050919050565b6118b7816118a1565b82525050565b60008115159050919050565b6118d2816118bd565b82525050565b600060e0820190506118ed600083018a611877565b6118fa6020830189611877565b6119076040830188611877565b6119146060830187611877565b61192160808301866118ae565b61192e60a08301856118c9565b61193b60c08301846118c9565b98975050505050505050565b611950816118a1565b811461195b57600080fd5b50565b60008135905061196d81611947565b92915050565b6000806040838503121561198a57611989611773565b5b600061199885828601611799565b92505060206119a98582860161195e565b9150509250929050565b6119bc8161180e565b81146119c757600080fd5b50565b6000813590506119d9816119b3565b92915050565b600080604083850312156119f6576119f5611773565b5b6000611a0485828601611799565b9250506020611a15858286016119ca565b9150509250929050565b6000606082019050611a3460008301866118ae565b611a416020830185611877565b611a4e60408301846118c9565b949350505050565b600080600060608486031215611a6f57611a6e611773565b5b6000611a7d86828701611799565b9350506020611a8e8682870161195e565b9250506040611a9f86828701611799565b9150509250925092565b600082825260208201905092915050565b7f4f6e6c792061646d696e00000000000000000000000000000000000000000000600082015250565b6000611af0600a83611aa9565b9150611afb82611aba565b602082019050919050565b60006020820190508181036000830152611b1f81611ae3565b9050919050565b7f4d61746368206e6f742065786973740000000000000000000000000000000000600082015250565b6000611b5c600f83611aa9565b9150611b6782611b26565b602082019050919050565b60006020820190508181036000830152611b8b81611b4f565b9050919050565b7f416c726561647920696e6a656374656400000000000000000000000000000000600082015250565b6000611bc8601083611aa9565b9150611bd382611b92565b602082019050919050565b60006020820190508181036000830152611bf781611bbb565b9050919050565b7f4d6174636820736574746c656400000000000000000000000000000000000000600082015250565b6000611c34600d83611aa9565b9150611c3f82611bfe565b602082019050919050565b60006020820190508181036000830152611c6381611c27565b9050919050565b7f5a65726f20616d6f756e74000000000000000000000000000000000000000000600082015250565b6000611ca0600b83611aa9565b9150611cab82611c6a565b602082019050919050565b60006020820190508181036000830152611ccf81611c93565b9050919050565b7f56616c7565206d69736d61746368000000000000000000000000000000000000600082015250565b6000611d0c600e83611aa9565b9150611d1782611cd6565b602082019050919050565b60006020820190508181036000830152611d3b81611cff565b9050919050565b7f4e6f7420736574746c6564000000000000000000000000000000000000000000600082015250565b6000611d78600b83611aa9565b9150611d8382611d42565b602082019050919050565b60006020820190508181036000830152611da781611d6b565b9050919050565b7f416c726561647920736574746c65640000000000000000000000000000000000600082015250565b6000611de4600f83611aa9565b9150611def82611dae565b602082019050919050565b60006020820190508181036000830152611e1381611dd7565b9050919050565b7f526577617264206e6f7420696e6a656374656400000000000000000000000000600082015250565b6000611e50601383611aa9565b9150611e5b82611e1a565b602082019050919050565b60006020820190508181036000830152611e7f81611e43565b9050919050565b7f496e76616c696420726573756c74000000000000000000000000000000000000600082015250565b6000611ebc600e83611aa9565b9150611ec782611e86565b602082019050919050565b60006020820190508181036000830152611eeb81611eaf565b9050919050565b6000602082019050611f0760008301846118ae565b92915050565b7f4e6f206265740000000000000000000000000000000000000000000000000000600082015250565b6000611f43600683611aa9565b9150611f4e82611f0d565b602082019050919050565b60006020820190508181036000830152611f7281611f36565b9050919050565b7f416c726561647920636c61696d65640000000000000000000000000000000000600082015250565b6000611faf600f83611aa9565b9150611fba82611f79565b602082019050919050565b60006020820190508181036000830152611fde81611fa2565b9050919050565b7f4e487b7100000000000000000000000000000000000000000000000000000000600052601160045260246000fd5b600061201f82611778565b915061202a83611778565b925082820261203881611778565b9150828204841483151761204f5761204e611fe5565b5b5092915050565b7f4e487b7100000000000000000000000000000000000000000000000000000000600052601260045260246000fd5b600061209082611778565b915061209b83611778565b9250826120ab576120aa612056565b5b828204905092915050565b60006120c182611778565b91506120cc83611778565b92508282019050808211156120e4576120e3611fe5565b5b92915050565b60006120f582611778565b915061210083611778565b925082820390508181111561211857612117611fe5565b5b92915050565b600081905092915050565b50565b600061213960008361211e565b915061214482612129565b600082019050919050565b600061215a8261212c565b9150819050919050565b7f466565207472616e73666572206661696c656400000000000000000000000000600082015250565b600061219a601383611aa9565b91506121a582612164565b602082019050919050565b600060208201905081810360008301526121c98161218d565b9050919050565b7f526577617264207472616e73666572206661696c656400000000000000000000600082015250565b6000612206601683611aa9565b9150612211826121d0565b602082019050919050565b60006020820190508181036000830152612235816121f9565b9050919050565b7f4d61746368206578697374730000000000000000000000000000000000000000600082015250565b6000612272600c83611aa9565b915061227d8261223c565b602082019050919050565b600060208201905081810360008301526122a181612265565b9050919050565b7f496e76616c6964207465616d0000000000000000000000000000000000000000600082015250565b60006122de600c83611aa9565b91506122e9826122a8565b602082019050919050565b6000602082019050818103600083015261230d816122d1565b9050919050565b7f42657420746f6f20736d616c6c00000000000000000000000000000000000000600082015250565b600061234a600d83611aa9565b915061235582612314565b602082019050919050565b600060208201905081810360008301526123798161233d565b9050919050565b7f416c726561647920626574000000000000000000000000000000000000000000600082015250565b60006123b6600b83611aa9565b91506123c182612380565b602082019050919050565b600060208201905081810360008301526123e5816123a9565b9050919050565b600060408201905061240160008301856118ae565b61240e6020830184611877565b9392505050565b7f4e6f2066756e6473000000000000000000000000000000000000000000000000600082015250565b600061244b600883611aa9565b915061245682612415565b602082019050919050565b6000602082019050818103600083015261247a8161243e565b9050919050565b7f5472616e73666572206661696c65640000000000000000000000000000000000600082015250565b60006124b7600f83611aa9565b91506124c282612481565b602082019050919050565b600060208201905081810360008301526124e6816124aa565b905091905056fea264697066735822122060035eea2ff413a513946df3fec17e5159613df04cad1d32eeb3a335e3946daf64736f6c63430008140033",
  "linkReferences": {},
  "deployedLinkReferences": {}
}