{"contracts/FanForcePredictionDemo.sol":{"FanForcePredictionDemo":{"abi":[{"inputs":[{"internalType":"address","name":"chzToken","type":"address"}],"stateMutability":"nonpayable","type":"constructor"},{"inputs":[],"name":"ReentrancyGuardReentrantCall","type":"error"},{"anonymous":false,"inputs":[{"indexed":true,"internalType":"uint256","name":"matchId","type":"uint256"},{"indexed":true,"internalType":"address","name":"user","type":"address"},{"indexed":false,"internalType":"uint8","name":"team","type":"uint8"},{"indexed":false,"internalType":"uint256","name":"amount","type":"uint256"}],"name":"BetPlaced","type":"event"},{"anonymous":false,"inputs":[{"indexed":true,"internalType":"address","name":"admin","type":"address"},{"indexed":false,"internalType":"uint256","name":"amount","type":"uint256"}],"name":"EmergencyWithdraw","type":"event"},{"anonymous":false,"inputs":[{"indexed":true,"internalType":"uint256","name":"matchId","type":"uint256"}],"name":"MatchCreated","type":"event"},{"anonymous":false,"inputs":[{"indexed":true,"internalType":"uint256","name":"matchId","type":"uint256"}],"name":"MatchReset","type":"event"},{"anonymous":false,"inputs":[{"indexed":true,"internalType":"uint256","name":"matchId","type":"uint256"},{"indexed":false,"internalType":"uint8","name":"result","type":"uint8"}],"name":"MatchSettled","type":"event"},{"anonymous":false,"inputs":[{"indexed":true,"internalType":"uint256","name":"matchId","type":"uint256"},{"indexed":true,"internalType":"address","name":"user","type":"address"},{"indexed":false,"internalType":"uint256","name":"amount","type":"uint256"}],"name":"RewardClaimed","type":"event"},{"anonymous":false,"inputs":[{"indexed":true,"internalType":"uint256","name":"matchId","type":"uint256"},{"indexed":false,"internalType":"uint256","name":"amount","type":"uint256"}],"name":"RewardInjected","type":"event"},{"inputs":[],"name":"ADMIN","outputs":[{"internalType":"address","name":"","type":"address"}],"stateMutability":"view","type":"function"},{"inputs":[],"name":"CHZ","outputs":[{"internalType":"contract IERC20","name":"","type":"address"}],"stateMutability":"view","type":"function"},{"inputs":[],"name":"LOSER_RATIO","outputs":[{"internalType":"uint256","name":"","type":"uint256"}],"stateMutability":"view","type":"function"},{"inputs":[],"name":"MIN_BET","outputs":[{"internalType":"uint256","name":"","type":"uint256"}],"stateMutability":"view","type":"function"},{"inputs":[],"name":"PLATFORM_FEE_PERCENT","outputs":[{"internalType":"uint256","name":"","type":"uint256"}],"stateMutability":"view","type":"function"},{"inputs":[],"name":"RATIO_BASE","outputs":[{"internalType":"uint256","name":"","type":"uint256"}],"stateMutability":"view","type":"function"},{"inputs":[],"name":"WINNER_RATIO","outputs":[{"internalType":"uint256","name":"","type":"uint256"}],"stateMutability":"view","type":"function"},{"inputs":[{"internalType":"uint256","name":"matchId","type":"uint256"}],"name":"claimReward","outputs":[],"stateMutability":"nonpayable","type":"function"},{"inputs":[{"internalType":"uint256","name":"matchId","type":"uint256"}],"name":"createMatch","outputs":[],"stateMutability":"nonpayable","type":"function"},{"inputs":[],"name":"emergencyWithdraw","outputs":[],"stateMutability":"nonpayable","type":"function"},{"inputs":[{"internalType":"uint256","name":"matchId","type":"uint256"}],"name":"getMatch","outputs":[{"internalType":"uint256","name":"","type":"uint256"},{"internalType":"uint256","name":"","type":"uint256"},{"internalType":"uint256","name":"","type":"uint256"},{"internalType":"uint256","name":"","type":"uint256"},{"internalType":"uint8","name":"","type":"uint8"},{"internalType":"bool","name":"","type":"bool"},{"internalType":"bool","name":"","type":"bool"}],"stateMutability":"view","type":"function"},{"inputs":[{"internalType":"uint256","name":"matchId","type":"uint256"},{"internalType":"address","name":"user","type":"address"}],"name":"getUserBet","outputs":[{"internalType":"uint8","name":"","type":"uint8"},{"internalType":"uint256","name":"","type":"uint256"},{"internalType":"bool","name":"","type":"bool"}],"stateMutability":"view","type":"function"},{"inputs":[{"internalType":"uint256","name":"matchId","type":"uint256"},{"internalType":"uint256","name":"amount","type":"uint256"}],"name":"injectReward","outputs":[],"stateMutability":"nonpayable","type":"function"},{"inputs":[{"internalType":"uint256","name":"","type":"uint256"}],"name":"matchIds","outputs":[{"internalType":"uint256","name":"","type":"uint256"}],"stateMutability":"view","type":"function"},{"inputs":[{"internalType":"uint256","name":"matchId","type":"uint256"},{"internalType":"uint8","name":"team","type":"uint8"},{"internalType":"uint256","name":"amount","type":"uint256"}],"name":"placeBet","outputs":[],"stateMutability":"nonpayable","type":"function"},{"inputs":[{"internalType":"uint256","name":"matchId","type":"uint256"}],"name":"resetMatch","outputs":[],"stateMutability":"nonpayable","type":"function"},{"inputs":[{"internalType":"uint256","name":"matchId","type":"uint256"},{"internalType":"uint8","name":"result","type":"uint8"}],"name":"settleMatch","outputs":[],"stateMutability":"nonpayable","type":"function"}],"evm":{"bytecode":{"linkReferences":{},"object":"60a060405234801561001057600080fd5b506040516115d23803806115d283398101604081905261002f91610045565b60016000556001600160a01b0316608052610075565b60006020828403121561005757600080fd5b81516001600160a01b038116811461006e57600080fd5b9392505050565b6080516115186100ba60003960008181610248015281816104a801528181610ae501528181610bb801528181610f38015281816110d001526111b001526115186000f3fe608060405234801561001057600080fd5b506004361061010b5760003560e01c80638e416c93116100a2578063c03fb87c11610071578063c03fb87c146102a3578063c11a563014610312578063cfa475011461031a578063da866c4814610322578063db2e21bc1461033557600080fd5b80638e416c9314610243578063a09d0dce1461026a578063ae169a501461027d578063b67a88f91461029057600080fd5b8063473cc0e3116100de578063473cc0e314610211578063560d52d4146102195780636540742f1461022157806367ac47111461023057600080fd5b8063097cd232146101105780632a0acc6a1461012557806336ff6a701461015d5780633d092b3d1461017e575b600080fd5b61012361011e3660046112c1565b61033d565b005b610140730d87d8e1def9ca4a5f1be181dc37c9ed9622c8d581565b6040516001600160a01b0390911681526020015b60405180910390f35b61017061016b3660046112e3565b61059e565b604051908152602001610154565b6101d561018c3660046112e3565b6000908152600160208190526040909120805491810154600282015460038301546004909301549394919390929160ff8083169261010081048216926201000090910490911690565b60408051978852602088019690965294860193909352606085019190915260ff166080840152151560a0830152151560c082015260e001610154565b610170604681565b610170600581565b610170670de0b6b3a764000081565b61012361023e3660046112e3565b6105bf565b6101407f000000000000000000000000000000000000000000000000000000000000000081565b610123610278366004611312565b6106b9565b61012361028b3660046112e3565b61085c565b61012361029e3660046112e3565b610cbb565b6102f16102b136600461133e565b60008281526001602081815260408084206001600160a01b038616855260050190915290912080549181015460029091015460ff92831692169250925092565b6040805160ff90941684526020840192909252151590820152606001610154565b610170606481565b610170601e81565b61012361033036600461137a565b610dac565b61012361107d565b33730d87d8e1def9ca4a5f1be181dc37c9ed9622c8d5146103795760405162461bcd60e51b8152600401610370906113af565b60405180910390fd5b610381611297565b600082815260016020526040812080549091036103b05760405162461bcd60e51b8152600401610370906113d3565b600481015462010000900460ff16156103fe5760405162461bcd60e51b815260206004820152601060248201526f105b1c9958591e481a5b9a9958dd195960821b6044820152606401610370565b6004810154610100900460ff16156104485760405162461bcd60e51b815260206004820152600d60248201526c13585d18da081cd95d1d1b1959609a1b6044820152606401610370565b600082116104865760405162461bcd60e51b815260206004820152600b60248201526a16995c9bc8185b5bdd5b9d60aa1b6044820152606401610370565b6040516323b872dd60e01b8152336004820152306024820152604481018390527f00000000000000000000000000000000000000000000000000000000000000006001600160a01b0316906323b872dd906064016020604051808303816000875af11580156104f9573d6000803e3d6000fd5b505050506040513d601f19601f8201168201806040525081019061051d91906113fc565b6105395760405162461bcd60e51b815260040161037090611425565b6003810182905560048101805462ff000019166201000017905560405183907f64fe04cd466a6f785131eb5f5a13b4ec0a27176e96119127d78c6d1d2fa27274906105879085815260200190565b60405180910390a25061059a6001600055565b5050565b600281815481106105ae57600080fd5b600091825260209091200154905081565b33730d87d8e1def9ca4a5f1be181dc37c9ed9622c8d5146105f25760405162461bcd60e51b8152600401610370906113af565b600081815260016020526040812080549091036106215760405162461bcd60e51b8152600401610370906113d3565b6004810154610100900460ff166106685760405162461bcd60e51b815260206004820152600b60248201526a139bdd081cd95d1d1b195960aa1b6044820152606401610370565b600060018201819055600282018190556003820181905560048201805462ffffff1916905560405183917f34bf18d7d934b69f239b96b5494fdf1a4b0e77589f153e9946bc9b6e28c0155991a25050565b33730d87d8e1def9ca4a5f1be181dc37c9ed9622c8d5146106ec5760405162461bcd60e51b8152600401610370906113af565b6000828152600160205260408120805490910361071b5760405162461bcd60e51b8152600401610370906113d3565b6004810154610100900460ff16156107675760405162461bcd60e51b815260206004820152600f60248201526e105b1c9958591e481cd95d1d1b1959608a1b6044820152606401610370565b600481015462010000900460ff166107b75760405162461bcd60e51b815260206004820152601360248201527214995dd85c99081b9bdd081a5b9a9958dd1959606a1b6044820152606401610370565b8160ff16600114806107cc57508160ff166002145b6108095760405162461bcd60e51b815260206004820152600e60248201526d125b9d985b1a59081c995cdd5b1d60921b6044820152606401610370565b60048101805461ffff191660ff84169081176101001790915560405190815283907fd455389610296740be2995ecb3aeaacddad222c9aa352f485b677869a11ac4b79060200160405180910390a2505050565b610864611297565b600081815260016020526040812080549091036108935760405162461bcd60e51b8152600401610370906113d3565b6004810154610100900460ff166108da5760405162461bcd60e51b815260206004820152600b60248201526a139bdd081cd95d1d1b195960aa1b6044820152606401610370565b336000908152600582016020526040902060018101546109255760405162461bcd60e51b8152602060048201526006602482015265139bc818995d60d21b6044820152606401610370565b600281015460ff161561096c5760405162461bcd60e51b815260206004820152600f60248201526e105b1c9958591e4818db185a5b5959608a1b6044820152606401610370565b60028101805460ff191660019081179091558101546004830154825460ff918216911603610a0f5760006064604685600301546109a99190611464565b6109b39190611481565b600485015490915060009060ff166001146109d25784600201546109d8565b84600101545b90508015610a0857808460010154836109f19190611464565b6109fb9190611481565b610a0590846114a3565b92505b5050610a86565b60006064601e8560030154610a249190611464565b610a2e9190611481565b600485015490915060009060ff16600114610a4d578460010154610a53565b84600201545b90508015610a835780846001015483610a6c9190611464565b610a769190611481565b610a8090846114a3565b92505b50505b60006064610a95600584611464565b610a9f9190611481565b90506000610aad82846114b6565b90508115610b9c5760405163a9059cbb60e01b8152730d87d8e1def9ca4a5f1be181dc37c9ed9622c8d56004820152602481018390527f00000000000000000000000000000000000000000000000000000000000000006001600160a01b03169063a9059cbb906044016020604051808303816000875af1158015610b36573d6000803e3d6000fd5b505050506040513d601f19601f82011682018060405250810190610b5a91906113fc565b610b9c5760405162461bcd60e51b8152602060048201526013602482015272119959481d1c985b9cd9995c8819985a5b1959606a1b6044820152606401610370565b60405163a9059cbb60e01b8152336004820152602481018290527f00000000000000000000000000000000000000000000000000000000000000006001600160a01b03169063a9059cbb906044016020604051808303816000875af1158015610c09573d6000803e3d6000fd5b505050506040513d601f19601f82011682018060405250810190610c2d91906113fc565b610c725760405162461bcd60e51b815260206004820152601660248201527514995dd85c99081d1c985b9cd9995c8819985a5b195960521b6044820152606401610370565b604051818152339087907f24b5efa61dd1cfc659205a97fb8ed868f3cb8c81922bab2b96423e5de1de2cb79060200160405180910390a35050505050610cb86001600055565b50565b33730d87d8e1def9ca4a5f1be181dc37c9ed9622c8d514610cee5760405162461bcd60e51b8152600401610370906113af565b60008181526001602052604090205415610d395760405162461bcd60e51b815260206004820152600c60248201526b4d617463682065786973747360a01b6044820152606401610370565b600081815260016020819052604080832084815560028054938401815584527f405787fa12a823e0f2b7631cc41b3ba8828b3321ca811111fa75cd3aa3bb5ace90920184905551909183917f029c42c1ae2efa2f406e0681e1f940dde3568cd96a1ecf3715dc1191f0d3edbc9190a25050565b610db4611297565b8160ff1660011480610dc957508160ff166002145b610e045760405162461bcd60e51b815260206004820152600c60248201526b496e76616c6964207465616d60a01b6044820152606401610370565b670de0b6b3a7640000811015610e4c5760405162461bcd60e51b815260206004820152600d60248201526c10995d081d1bdbc81cdb585b1b609a1b6044820152606401610370565b60008381526001602052604081208054909103610e7b5760405162461bcd60e51b8152600401610370906113d3565b6004810154610100900460ff1615610ec55760405162461bcd60e51b815260206004820152600d60248201526c13585d18da081cd95d1d1b1959609a1b6044820152606401610370565b3360009081526005820160205260409020600181015415610f165760405162461bcd60e51b815260206004820152600b60248201526a105b1c9958591e4818995d60aa1b6044820152606401610370565b6040516323b872dd60e01b8152336004820152306024820152604481018490527f00000000000000000000000000000000000000000000000000000000000000006001600160a01b0316906323b872dd906064016020604051808303816000875af1158015610f89573d6000803e3d6000fd5b505050506040513d601f19601f82011682018060405250810190610fad91906113fc565b610fc95760405162461bcd60e51b815260040161037090611425565b805460ff851660ff199182168117835560018084018690556002840180549093169092559003611012578282600101600082825461100791906114a3565b9091555061102c9050565b8282600201600082825461102691906114a3565b90915550505b6040805160ff8616815260208101859052339187917f4f1eed5e863a822b0f9eb960dfdab2cc5a99beec4b191f2a7a9c7e28e5a15524910160405180910390a350506110786001600055565b505050565b33730d87d8e1def9ca4a5f1be181dc37c9ed9622c8d5146110b05760405162461bcd60e51b8152600401610370906113af565b6110b8611297565b6040516370a0823160e01b81523060048201526000907f00000000000000000000000000000000000000000000000000000000000000006001600160a01b0316906370a0823190602401602060405180830381865afa15801561111f573d6000803e3d6000fd5b505050506040513d601f19601f8201168201806040525081019061114391906114c9565b9050600081116111805760405162461bcd60e51b81526020600482015260086024820152674e6f2066756e647360c01b6044820152606401610370565b60405163a9059cbb60e01b8152730d87d8e1def9ca4a5f1be181dc37c9ed9622c8d56004820152602481018290527f00000000000000000000000000000000000000000000000000000000000000006001600160a01b03169063a9059cbb906044016020604051808303816000875af1158015611201573d6000803e3d6000fd5b505050506040513d601f19601f8201168201806040525081019061122591906113fc565b6112415760405162461bcd60e51b815260040161037090611425565b604051818152730d87d8e1def9ca4a5f1be181dc37c9ed9622c8d5907f5fafa99d0643513820be26656b45130b01e1c03062e1266bf36f88cbd3bd96959060200160405180910390a2506112956001600055565b565b6002600054036112ba57604051633ee5aeb560e01b815260040160405180910390fd5b6002600055565b600080604083850312156112d457600080fd5b50508035926020909101359150565b6000602082840312156112f557600080fd5b5035919050565b803560ff8116811461130d57600080fd5b919050565b6000806040838503121561132557600080fd5b82359150611335602084016112fc565b90509250929050565b6000806040838503121561135157600080fd5b8235915060208301356001600160a01b038116811461136f57600080fd5b809150509250929050565b60008060006060848603121561138f57600080fd5b8335925061139f602085016112fc565b9150604084013590509250925092565b6020808252600a908201526927b7363c9030b236b4b760b11b604082015260600190565b6020808252600f908201526e13585d18da081b9bdd08195e1a5cdd608a1b604082015260600190565b60006020828403121561140e57600080fd5b8151801515811461141e57600080fd5b9392505050565b6020808252600f908201526e151c985b9cd9995c8819985a5b1959608a1b604082015260600190565b634e487b7160e01b600052601160045260246000fd5b808202811582820484141761147b5761147b61144e565b92915050565b60008261149e57634e487b7160e01b600052601260045260246000fd5b500490565b8082018082111561147b5761147b61144e565b8181038181111561147b5761147b61144e565b6000602082840312156114db57600080fd5b505191905056fea26469706673582212200cfaee88b7bf0b3ed63a1ca5a24fbdf83aed47b2dec69b48b3fa8c75924b093b64736f6c63430008140033","opcodes":"PUSH1 0xA0 PUSH1 0x40 MSTORE CALLVALUE DUP1 ISZERO PUSH2 0x10 JUMPI PUSH1 0x0 DUP1 REVERT JUMPDEST POP PUSH1 0x40 MLOAD PUSH2 0x15D2 CODESIZE SUB DUP1 PUSH2 0x15D2 DUP4 CODECOPY DUP2 ADD PUSH1 0x40 DUP2 SWAP1 MSTORE PUSH2 0x2F SWAP2 PUSH2 0x45 JUMP JUMPDEST PUSH1 0x1 PUSH1 0x0 SSTORE PUSH1 0x1 PUSH1 0x1 PUSH1 0xA0 SHL SUB AND PUSH1 0x80 MSTORE PUSH2 0x75 JUMP JUMPDEST PUSH1 0x0 PUSH1 0x20 DUP3 DUP5 SUB SLT ISZERO PUSH2 0x57 JUMPI PUSH1 0x0 DUP1 REVERT JUMPDEST DUP2 MLOAD PUSH1 0x1 PUSH1 0x1 PUSH1 0xA0 SHL SUB DUP2 AND DUP2 EQ PUSH2 0x6E JUMPI PUSH1 0x0 DUP1 REVERT JUMPDEST SWAP4 SWAP3 POP POP POP JUMP JUMPDEST PUSH1 0x80 MLOAD PUSH2 0x1518 PUSH2 0xBA PUSH1 0x0 CODECOPY PUSH1 0x0 DUP2 DUP2 PUSH2 0x248 ADD MSTORE DUP2 DUP2 PUSH2 0x4A8 ADD MSTORE DUP2 DUP2 PUSH2 0xAE5 ADD MSTORE DUP2 DUP2 PUSH2 0xBB8 ADD MSTORE DUP2 DUP2 PUSH2 0xF38 ADD MSTORE DUP2 DUP2 PUSH2 0x10D0 ADD MSTORE PUSH2 0x11B0 ADD MSTORE PUSH2 0x1518 PUSH1 0x0 RETURN INVALID PUSH1 0x80 PUSH1 0x40 MSTORE CALLVALUE DUP1 ISZERO PUSH2 0x10 JUMPI PUSH1 0x0 DUP1 REVERT JUMPDEST POP PUSH1 0x4 CALLDATASIZE LT PUSH2 0x10B JUMPI PUSH1 0x0 CALLDATALOAD PUSH1 0xE0 SHR DUP1 PUSH4 0x8E416C93 GT PUSH2 0xA2 JUMPI DUP1 PUSH4 0xC03FB87C GT PUSH2 0x71 JUMPI DUP1 PUSH4 0xC03FB87C EQ PUSH2 0x2A3 JUMPI DUP1 PUSH4 0xC11A5630 EQ PUSH2 0x312 JUMPI DUP1 PUSH4 0xCFA47501 EQ PUSH2 0x31A JUMPI DUP1 PUSH4 0xDA866C48 EQ PUSH2 0x322 JUMPI DUP1 PUSH4 0xDB2E21BC EQ PUSH2 0x335 JUMPI PUSH1 0x0 DUP1 REVERT JUMPDEST DUP1 PUSH4 0x8E416C93 EQ PUSH2 0x243 JUMPI DUP1 PUSH4 0xA09D0DCE EQ PUSH2 0x26A JUMPI DUP1 PUSH4 0xAE169A50 EQ PUSH2 0x27D JUMPI DUP1 PUSH4 0xB67A88F9 EQ PUSH2 0x290 JUMPI PUSH1 0x0 DUP1 REVERT JUMPDEST DUP1 PUSH4 0x473CC0E3 GT PUSH2 0xDE JUMPI DUP1 PUSH4 0x473CC0E3 EQ PUSH2 0x211 JUMPI DUP1 PUSH4 0x560D52D4 EQ PUSH2 0x219 JUMPI DUP1 PUSH4 0x6540742F EQ PUSH2 0x221 JUMPI DUP1 PUSH4 0x67AC4711 EQ PUSH2 0x230 JUMPI PUSH1 0x0 DUP1 REVERT JUMPDEST DUP1 PUSH4 0x97CD232 EQ PUSH2 0x110 JUMPI DUP1 PUSH4 0x2A0ACC6A EQ PUSH2 0x125 JUMPI DUP1 PUSH4 0x36FF6A70 EQ PUSH2 0x15D JUMPI DUP1 PUSH4 0x3D092B3D EQ PUSH2 0x17E JUMPI JUMPDEST PUSH1 0x0 DUP1 REVERT JUMPDEST PUSH2 0x123 PUSH2 0x11E CALLDATASIZE PUSH1 0x4 PUSH2 0x12C1 JUMP JUMPDEST PUSH2 0x33D JUMP JUMPDEST STOP JUMPDEST PUSH2 0x140 PUSH20 0xD87D8E1DEF9CA4A5F1BE181DC37C9ED9622C8D5 DUP2 JUMP JUMPDEST PUSH1 0x40 MLOAD PUSH1 0x1 PUSH1 0x1 PUSH1 0xA0 SHL SUB SWAP1 SWAP2 AND DUP2 MSTORE PUSH1 0x20 ADD JUMPDEST PUSH1 0x40 MLOAD DUP1 SWAP2 SUB SWAP1 RETURN JUMPDEST PUSH2 0x170 PUSH2 0x16B CALLDATASIZE PUSH1 0x4 PUSH2 0x12E3 JUMP JUMPDEST PUSH2 0x59E JUMP JUMPDEST PUSH1 0x40 MLOAD SWAP1 DUP2 MSTORE PUSH1 0x20 ADD PUSH2 0x154 JUMP JUMPDEST PUSH2 0x1D5 PUSH2 0x18C CALLDATASIZE PUSH1 0x4 PUSH2 0x12E3 JUMP JUMPDEST PUSH1 0x0 SWAP1 DUP2 MSTORE PUSH1 0x1 PUSH1 0x20 DUP2 SWAP1 MSTORE PUSH1 0x40 SWAP1 SWAP2 KECCAK256 DUP1 SLOAD SWAP2 DUP2 ADD SLOAD PUSH1 0x2 DUP3 ADD SLOAD PUSH1 0x3 DUP4 ADD SLOAD PUSH1 0x4 SWAP1 SWAP4 ADD SLOAD SWAP4 SWAP5 SWAP2 SWAP4 SWAP1 SWAP3 SWAP2 PUSH1 0xFF DUP1 DUP4 AND SWAP3 PUSH2 0x100 DUP2 DIV DUP3 AND SWAP3 PUSH3 0x10000 SWAP1 SWAP2 DIV SWAP1 SWAP2 AND SWAP1 JUMP JUMPDEST PUSH1 0x40 DUP1 MLOAD SWAP8 DUP9 MSTORE PUSH1 0x20 DUP9 ADD SWAP7 SWAP1 SWAP7 MSTORE SWAP5 DUP7 ADD SWAP4 SWAP1 SWAP4 MSTORE PUSH1 0x60 DUP6 ADD SWAP2 SWAP1 SWAP2 MSTORE PUSH1 0xFF AND PUSH1 0x80 DUP5 ADD MSTORE ISZERO ISZERO PUSH1 0xA0 DUP4 ADD MSTORE ISZERO ISZERO PUSH1 0xC0 DUP3 ADD MSTORE PUSH1 0xE0 ADD PUSH2 0x154 JUMP JUMPDEST PUSH2 0x170 PUSH1 0x46 DUP2 JUMP JUMPDEST PUSH2 0x170 PUSH1 0x5 DUP2 JUMP JUMPDEST PUSH2 0x170 PUSH8 0xDE0B6B3A7640000 DUP2 JUMP JUMPDEST PUSH2 0x123 PUSH2 0x23E CALLDATASIZE PUSH1 0x4 PUSH2 0x12E3 JUMP JUMPDEST PUSH2 0x5BF JUMP JUMPDEST PUSH2 0x140 PUSH32 0x0 DUP2 JUMP JUMPDEST PUSH2 0x123 PUSH2 0x278 CALLDATASIZE PUSH1 0x4 PUSH2 0x1312 JUMP JUMPDEST PUSH2 0x6B9 JUMP JUMPDEST PUSH2 0x123 PUSH2 0x28B CALLDATASIZE PUSH1 0x4 PUSH2 0x12E3 JUMP JUMPDEST PUSH2 0x85C JUMP JUMPDEST PUSH2 0x123 PUSH2 0x29E CALLDATASIZE PUSH1 0x4 PUSH2 0x12E3 JUMP JUMPDEST PUSH2 0xCBB JUMP JUMPDEST PUSH2 0x2F1 PUSH2 0x2B1 CALLDATASIZE PUSH1 0x4 PUSH2 0x133E JUMP JUMPDEST PUSH1 0x0 DUP3 DUP2 MSTORE PUSH1 0x1 PUSH1 0x20 DUP2 DUP2 MSTORE PUSH1 0x40 DUP1 DUP5 KECCAK256 PUSH1 0x1 PUSH1 0x1 PUSH1 0xA0 SHL SUB DUP7 AND DUP6 MSTORE PUSH1 0x5 ADD SWAP1 SWAP2 MSTORE SWAP1 SWAP2 KECCAK256 DUP1 SLOAD SWAP2 DUP2 ADD SLOAD PUSH1 0x2 SWAP1 SWAP2 ADD SLOAD PUSH1 0xFF SWAP3 DUP4 AND SWAP3 AND SWAP3 POP SWAP3 POP SWAP3 JUMP JUMPDEST PUSH1 0x40 DUP1 MLOAD PUSH1 0xFF SWAP1 SWAP5 AND DUP5 MSTORE PUSH1 0x20 DUP5 ADD SWAP3 SWAP1 SWAP3 MSTORE ISZERO ISZERO SWAP1 DUP3 ADD MSTORE PUSH1 0x60 ADD PUSH2 0x154 JUMP JUMPDEST PUSH2 0x170 PUSH1 0x64 DUP2 JUMP JUMPDEST PUSH2 0x170 PUSH1 0x1E DUP2 JUMP JUMPDEST PUSH2 0x123 PUSH2 0x330 CALLDATASIZE PUSH1 0x4 PUSH2 0x137A JUMP JUMPDEST PUSH2 0xDAC JUMP JUMPDEST PUSH2 0x123 PUSH2 0x107D JUMP JUMPDEST CALLER PUSH20 0xD87D8E1DEF9CA4A5F1BE181DC37C9ED9622C8D5 EQ PUSH2 0x379 JUMPI PUSH1 0x40 MLOAD PUSH3 0x461BCD PUSH1 0xE5 SHL DUP2 MSTORE PUSH1 0x4 ADD PUSH2 0x370 SWAP1 PUSH2 0x13AF JUMP JUMPDEST PUSH1 0x40 MLOAD DUP1 SWAP2 SUB SWAP1 REVERT JUMPDEST PUSH2 0x381 PUSH2 0x1297 JUMP JUMPDEST PUSH1 0x0 DUP3 DUP2 MSTORE PUSH1 0x1 PUSH1 0x20 MSTORE PUSH1 0x40 DUP2 KECCAK256 DUP1 SLOAD SWAP1 SWAP2 SUB PUSH2 0x3B0 JUMPI PUSH1 0x40 MLOAD PUSH3 0x461BCD PUSH1 0xE5 SHL DUP2 MSTORE PUSH1 0x4 ADD PUSH2 0x370 SWAP1 PUSH2 0x13D3 JUMP JUMPDEST PUSH1 0x4 DUP2 ADD SLOAD PUSH3 0x10000 SWAP1 DIV PUSH1 0xFF AND ISZERO PUSH2 0x3FE JUMPI PUSH1 0x40 MLOAD PUSH3 0x461BCD PUSH1 0xE5 SHL DUP2 MSTORE PUSH1 0x20 PUSH1 0x4 DUP3 ADD MSTORE PUSH1 0x10 PUSH1 0x24 DUP3 ADD MSTORE PUSH16 0x105B1C9958591E481A5B9A9958DD1959 PUSH1 0x82 SHL PUSH1 0x44 DUP3 ADD MSTORE PUSH1 0x64 ADD PUSH2 0x370 JUMP JUMPDEST PUSH1 0x4 DUP2 ADD SLOAD PUSH2 0x100 SWAP1 DIV PUSH1 0xFF AND ISZERO PUSH2 0x448 JUMPI PUSH1 0x40 MLOAD PUSH3 0x461BCD PUSH1 0xE5 SHL DUP2 MSTORE PUSH1 0x20 PUSH1 0x4 DUP3 ADD MSTORE PUSH1 0xD PUSH1 0x24 DUP3 ADD MSTORE PUSH13 0x13585D18DA081CD95D1D1B1959 PUSH1 0x9A SHL PUSH1 0x44 DUP3 ADD MSTORE PUSH1 0x64 ADD PUSH2 0x370 JUMP JUMPDEST PUSH1 0x0 DUP3 GT PUSH2 0x486 JUMPI PUSH1 0x40 MLOAD PUSH3 0x461BCD PUSH1 0xE5 SHL DUP2 MSTORE PUSH1 0x20 PUSH1 0x4 DUP3 ADD MSTORE PUSH1 0xB PUSH1 0x24 DUP3 ADD MSTORE PUSH11 0x16995C9BC8185B5BDD5B9D PUSH1 0xAA SHL PUSH1 0x44 DUP3 ADD MSTORE PUSH1 0x64 ADD PUSH2 0x370 JUMP JUMPDEST PUSH1 0x40 MLOAD PUSH4 0x23B872DD PUSH1 0xE0 SHL DUP2 MSTORE CALLER PUSH1 0x4 DUP3 ADD MSTORE ADDRESS PUSH1 0x24 DUP3 ADD MSTORE PUSH1 0x44 DUP2 ADD DUP4 SWAP1 MSTORE PUSH32 0x0 PUSH1 0x1 PUSH1 0x1 PUSH1 0xA0 SHL SUB AND SWAP1 PUSH4 0x23B872DD SWAP1 PUSH1 0x64 ADD PUSH1 0x20 PUSH1 0x40 MLOAD DUP1 DUP4 SUB DUP2 PUSH1 0x0 DUP8 GAS CALL ISZERO DUP1 ISZERO PUSH2 0x4F9 JUMPI RETURNDATASIZE PUSH1 0x0 DUP1 RETURNDATACOPY RETURNDATASIZE PUSH1 0x0 REVERT JUMPDEST POP POP POP POP PUSH1 0x40 MLOAD RETURNDATASIZE PUSH1 0x1F NOT PUSH1 0x1F DUP3 ADD AND DUP3 ADD DUP1 PUSH1 0x40 MSTORE POP DUP2 ADD SWAP1 PUSH2 0x51D SWAP2 SWAP1 PUSH2 0x13FC JUMP JUMPDEST PUSH2 0x539 JUMPI PUSH1 0x40 MLOAD PUSH3 0x461BCD PUSH1 0xE5 SHL DUP2 MSTORE PUSH1 0x4 ADD PUSH2 0x370 SWAP1 PUSH2 0x1425 JUMP JUMPDEST PUSH1 0x3 DUP2 ADD DUP3 SWAP1 SSTORE PUSH1 0x4 DUP2 ADD DUP1 SLOAD PUSH3 0xFF0000 NOT AND PUSH3 0x10000 OR SWAP1 SSTORE PUSH1 0x40 MLOAD DUP4 SWAP1 PUSH32 0x64FE04CD466A6F785131EB5F5A13B4EC0A27176E96119127D78C6D1D2FA27274 SWAP1 PUSH2 0x587 SWAP1 DUP6 DUP2 MSTORE PUSH1 0x20 ADD SWAP1 JUMP JUMPDEST PUSH1 0x40 MLOAD DUP1 SWAP2 SUB SWAP1 LOG2 POP PUSH2 0x59A PUSH1 0x1 PUSH1 0x0 SSTORE JUMP JUMPDEST POP POP JUMP JUMPDEST PUSH1 0x2 DUP2 DUP2 SLOAD DUP2 LT PUSH2 0x5AE JUMPI PUSH1 0x0 DUP1 REVERT JUMPDEST PUSH1 0x0 SWAP2 DUP3 MSTORE PUSH1 0x20 SWAP1 SWAP2 KECCAK256 ADD SLOAD SWAP1 POP DUP2 JUMP JUMPDEST CALLER PUSH20 0xD87D8E1DEF9CA4A5F1BE181DC37C9ED9622C8D5 EQ PUSH2 0x5F2 JUMPI PUSH1 0x40 MLOAD PUSH3 0x461BCD PUSH1 0xE5 SHL DUP2 MSTORE PUSH1 0x4 ADD PUSH2 0x370 SWAP1 PUSH2 0x13AF JUMP JUMPDEST PUSH1 0x0 DUP2 DUP2 MSTORE PUSH1 0x1 PUSH1 0x20 MSTORE PUSH1 0x40 DUP2 KECCAK256 DUP1 SLOAD SWAP1 SWAP2 SUB PUSH2 0x621 JUMPI PUSH1 0x40 MLOAD PUSH3 0x461BCD PUSH1 0xE5 SHL DUP2 MSTORE PUSH1 0x4 ADD PUSH2 0x370 SWAP1 PUSH2 0x13D3 JUMP JUMPDEST PUSH1 0x4 DUP2 ADD SLOAD PUSH2 0x100 SWAP1 DIV PUSH1 0xFF AND PUSH2 0x668 JUMPI PUSH1 0x40 MLOAD PUSH3 0x461BCD PUSH1 0xE5 SHL DUP2 MSTORE PUSH1 0x20 PUSH1 0x4 DUP3 ADD MSTORE PUSH1 0xB PUSH1 0x24 DUP3 ADD MSTORE PUSH11 0x139BDD081CD95D1D1B1959 PUSH1 0xAA SHL PUSH1 0x44 DUP3 ADD MSTORE PUSH1 0x64 ADD PUSH2 0x370 JUMP JUMPDEST PUSH1 0x0 PUSH1 0x1 DUP3 ADD DUP2 SWAP1 SSTORE PUSH1 0x2 DUP3 ADD DUP2 SWAP1 SSTORE PUSH1 0x3 DUP3 ADD DUP2 SWAP1 SSTORE PUSH1 0x4 DUP3 ADD DUP1 SLOAD PUSH3 0xFFFFFF NOT AND SWAP1 SSTORE PUSH1 0x40 MLOAD DUP4 SWAP2 PUSH32 0x34BF18D7D934B69F239B96B5494FDF1A4B0E77589F153E9946BC9B6E28C01559 SWAP2 LOG2 POP POP JUMP JUMPDEST CALLER PUSH20 0xD87D8E1DEF9CA4A5F1BE181DC37C9ED9622C8D5 EQ PUSH2 0x6EC JUMPI PUSH1 0x40 MLOAD PUSH3 0x461BCD PUSH1 0xE5 SHL DUP2 MSTORE PUSH1 0x4 ADD PUSH2 0x370 SWAP1 PUSH2 0x13AF JUMP JUMPDEST PUSH1 0x0 DUP3 DUP2 MSTORE PUSH1 0x1 PUSH1 0x20 MSTORE PUSH1 0x40 DUP2 KECCAK256 DUP1 SLOAD SWAP1 SWAP2 SUB PUSH2 0x71B JUMPI PUSH1 0x40 MLOAD PUSH3 0x461BCD PUSH1 0xE5 SHL DUP2 MSTORE PUSH1 0x4 ADD PUSH2 0x370 SWAP1 PUSH2 0x13D3 JUMP JUMPDEST PUSH1 0x4 DUP2 ADD SLOAD PUSH2 0x100 SWAP1 DIV PUSH1 0xFF AND ISZERO PUSH2 0x767 JUMPI PUSH1 0x40 MLOAD PUSH3 0x461BCD PUSH1 0xE5 SHL DUP2 MSTORE PUSH1 0x20 PUSH1 0x4 DUP3 ADD MSTORE PUSH1 0xF PUSH1 0x24 DUP3 ADD MSTORE PUSH15 0x105B1C9958591E481CD95D1D1B1959 PUSH1 0x8A SHL PUSH1 0x44 DUP3 ADD MSTORE PUSH1 0x64 ADD PUSH2 0x370 JUMP JUMPDEST PUSH1 0x4 DUP2 ADD SLOAD PUSH3 0x10000 SWAP1 DIV PUSH1 0xFF AND PUSH2 0x7B7 JUMPI PUSH1 0x40 MLOAD PUSH3 0x461BCD PUSH1 0xE5 SHL DUP2 MSTORE PUSH1 0x20 PUSH1 0x4 DUP3 ADD MSTORE PUSH1 0x13 PUSH1 0x24 DUP3 ADD MSTORE PUSH19 0x14995DD85C99081B9BDD081A5B9A9958DD1959 PUSH1 0x6A SHL PUSH1 0x44 DUP3 ADD MSTORE PUSH1 0x64 ADD PUSH2 0x370 JUMP JUMPDEST DUP2 PUSH1 0xFF AND PUSH1 0x1 EQ DUP1 PUSH2 0x7CC JUMPI POP DUP2 PUSH1 0xFF AND PUSH1 0x2 EQ JUMPDEST PUSH2 0x809 JUMPI PUSH1 0x40 MLOAD PUSH3 0x461BCD PUSH1 0xE5 SHL DUP2 MSTORE PUSH1 0x20 PUSH1 0x4 DUP3 ADD MSTORE PUSH1 0xE PUSH1 0x24 DUP3 ADD MSTORE PUSH14 0x125B9D985B1A59081C995CDD5B1D PUSH1 0x92 SHL PUSH1 0x44 DUP3 ADD MSTORE PUSH1 0x64 ADD PUSH2 0x370 JUMP JUMPDEST PUSH1 0x4 DUP2 ADD DUP1 SLOAD PUSH2 0xFFFF NOT AND PUSH1 0xFF DUP5 AND SWAP1 DUP2 OR PUSH2 0x100 OR SWAP1 SWAP2 SSTORE PUSH1 0x40 MLOAD SWAP1 DUP2 MSTORE DUP4 SWAP1 PUSH32 0xD455389610296740BE2995ECB3AEAACDDAD222C9AA352F485B677869A11AC4B7 SWAP1 PUSH1 0x20 ADD PUSH1 0x40 MLOAD DUP1 SWAP2 SUB SWAP1 LOG2 POP POP POP JUMP JUMPDEST PUSH2 0x864 PUSH2 0x1297 JUMP JUMPDEST PUSH1 0x0 DUP2 DUP2 MSTORE PUSH1 0x1 PUSH1 0x20 MSTORE PUSH1 0x40 DUP2 KECCAK256 DUP1 SLOAD SWAP1 SWAP2 SUB PUSH2 0x893 JUMPI PUSH1 0x40 MLOAD PUSH3 0x461BCD PUSH1 0xE5 SHL DUP2 MSTORE PUSH1 0x4 ADD PUSH2 0x370 SWAP1 PUSH2 0x13D3 JUMP JUMPDEST PUSH1 0x4 DUP2 ADD SLOAD PUSH2 0x100 SWAP1 DIV PUSH1 0xFF AND PUSH2 0x8DA JUMPI PUSH1 0x40 MLOAD PUSH3 0x461BCD PUSH1 0xE5 SHL DUP2 MSTORE PUSH1 0x20 PUSH1 0x4 DUP3 ADD MSTORE PUSH1 0xB PUSH1 0x24 DUP3 ADD MSTORE PUSH11 0x139BDD081CD95D1D1B1959 PUSH1 0xAA SHL PUSH1 0x44 DUP3 ADD MSTORE PUSH1 0x64 ADD PUSH2 0x370 JUMP JUMPDEST CALLER PUSH1 0x0 SWAP1 DUP2 MSTORE PUSH1 0x5 DUP3 ADD PUSH1 0x20 MSTORE PUSH1 0x40 SWAP1 KECCAK256 PUSH1 0x1 DUP2 ADD SLOAD PUSH2 0x925 JUMPI PUSH1 0x40 MLOAD PUSH3 0x461BCD PUSH1 0xE5 SHL DUP2 MSTORE PUSH1 0x20 PUSH1 0x4 DUP3 ADD MSTORE PUSH1 0x6 PUSH1 0x24 DUP3 ADD MSTORE PUSH6 0x139BC818995D PUSH1 0xD2 SHL PUSH1 0x44 DUP3 ADD MSTORE PUSH1 0x64 ADD PUSH2 0x370 JUMP JUMPDEST PUSH1 0x2 DUP2 ADD SLOAD PUSH1 0xFF AND ISZERO PUSH2 0x96C JUMPI PUSH1 0x40 MLOAD PUSH3 0x461BCD PUSH1 0xE5 SHL DUP2 MSTORE PUSH1 0x20 PUSH1 0x4 DUP3 ADD MSTORE PUSH1 0xF PUSH1 0x24 DUP3 ADD MSTORE PUSH15 0x105B1C9958591E4818DB185A5B5959 PUSH1 0x8A SHL PUSH1 0x44 DUP3 ADD MSTORE PUSH1 0x64 ADD PUSH2 0x370 JUMP JUMPDEST PUSH1 0x2 DUP2 ADD DUP1 SLOAD PUSH1 0xFF NOT AND PUSH1 0x1 SWAP1 DUP2 OR SWAP1 SWAP2 SSTORE DUP2 ADD SLOAD PUSH1 0x4 DUP4 ADD SLOAD DUP3 SLOAD PUSH1 0xFF SWAP2 DUP3 AND SWAP2 AND SUB PUSH2 0xA0F JUMPI PUSH1 0x0 PUSH1 0x64 PUSH1 0x46 DUP6 PUSH1 0x3 ADD SLOAD PUSH2 0x9A9 SWAP2 SWAP1 PUSH2 0x1464 JUMP JUMPDEST PUSH2 0x9B3 SWAP2 SWAP1 PUSH2 0x1481 JUMP JUMPDEST PUSH1 0x4 DUP6 ADD SLOAD SWAP1 SWAP2 POP PUSH1 0x0 SWAP1 PUSH1 0xFF AND PUSH1 0x1 EQ PUSH2 0x9D2 JUMPI DUP5 PUSH1 0x2 ADD SLOAD PUSH2 0x9D8 JUMP JUMPDEST DUP5 PUSH1 0x1 ADD SLOAD JUMPDEST SWAP1 POP DUP1 ISZERO PUSH2 0xA08 JUMPI DUP1 DUP5 PUSH1 0x1 ADD SLOAD DUP4 PUSH2 0x9F1 SWAP2 SWAP1 PUSH2 0x1464 JUMP JUMPDEST PUSH2 0x9FB SWAP2 SWAP1 PUSH2 0x1481 JUMP JUMPDEST PUSH2 0xA05 SWAP1 DUP5 PUSH2 0x14A3 JUMP JUMPDEST SWAP3 POP JUMPDEST POP POP PUSH2 0xA86 JUMP JUMPDEST PUSH1 0x0 PUSH1 0x64 PUSH1 0x1E DUP6 PUSH1 0x3 ADD SLOAD PUSH2 0xA24 SWAP2 SWAP1 PUSH2 0x1464 JUMP JUMPDEST PUSH2 0xA2E SWAP2 SWAP1 PUSH2 0x1481 JUMP JUMPDEST PUSH1 0x4 DUP6 ADD SLOAD SWAP1 SWAP2 POP PUSH1 0x0 SWAP1 PUSH1 0xFF AND PUSH1 0x1 EQ PUSH2 0xA4D JUMPI DUP5 PUSH1 0x1 ADD SLOAD PUSH2 0xA53 JUMP JUMPDEST DUP5 PUSH1 0x2 ADD SLOAD JUMPDEST SWAP1 POP DUP1 ISZERO PUSH2 0xA83 JUMPI DUP1 DUP5 PUSH1 0x1 ADD SLOAD DUP4 PUSH2 0xA6C SWAP2 SWAP1 PUSH2 0x1464 JUMP JUMPDEST PUSH2 0xA76 SWAP2 SWAP1 PUSH2 0x1481 JUMP JUMPDEST PUSH2 0xA80 SWAP1 DUP5 PUSH2 0x14A3 JUMP JUMPDEST SWAP3 POP JUMPDEST POP POP JUMPDEST PUSH1 0x0 PUSH1 0x64 PUSH2 0xA95 PUSH1 0x5 DUP5 PUSH2 0x1464 JUMP JUMPDEST PUSH2 0xA9F SWAP2 SWAP1 PUSH2 0x1481 JUMP JUMPDEST SWAP1 POP PUSH1 0x0 PUSH2 0xAAD DUP3 DUP5 PUSH2 0x14B6 JUMP JUMPDEST SWAP1 POP DUP2 ISZERO PUSH2 0xB9C JUMPI PUSH1 0x40 MLOAD PUSH4 0xA9059CBB PUSH1 0xE0 SHL DUP2 MSTORE PUSH20 0xD87D8E1DEF9CA4A5F1BE181DC37C9ED9622C8D5 PUSH1 0x4 DUP3 ADD MSTORE PUSH1 0x24 DUP2 ADD DUP4 SWAP1 MSTORE PUSH32 0x0 PUSH1 0x1 PUSH1 0x1 PUSH1 0xA0 SHL SUB AND SWAP1 PUSH4 0xA9059CBB SWAP1 PUSH1 0x44 ADD PUSH1 0x20 PUSH1 0x40 MLOAD DUP1 DUP4 SUB DUP2 PUSH1 0x0 DUP8 GAS CALL ISZERO DUP1 ISZERO PUSH2 0xB36 JUMPI RETURNDATASIZE PUSH1 0x0 DUP1 RETURNDATACOPY RETURNDATASIZE PUSH1 0x0 REVERT JUMPDEST POP POP POP POP PUSH1 0x40 MLOAD RETURNDATASIZE PUSH1 0x1F NOT PUSH1 0x1F DUP3 ADD AND DUP3 ADD DUP1 PUSH1 0x40 MSTORE POP DUP2 ADD SWAP1 PUSH2 0xB5A SWAP2 SWAP1 PUSH2 0x13FC JUMP JUMPDEST PUSH2 0xB9C JUMPI PUSH1 0x40 MLOAD PUSH3 0x461BCD PUSH1 0xE5 SHL DUP2 MSTORE PUSH1 0x20 PUSH1 0x4 DUP3 ADD MSTORE PUSH1 0x13 PUSH1 0x24 DUP3 ADD MSTORE PUSH19 0x119959481D1C985B9CD9995C8819985A5B1959 PUSH1 0x6A SHL PUSH1 0x44 DUP3 ADD MSTORE PUSH1 0x64 ADD PUSH2 0x370 JUMP JUMPDEST PUSH1 0x40 MLOAD PUSH4 0xA9059CBB PUSH1 0xE0 SHL DUP2 MSTORE CALLER PUSH1 0x4 DUP3 ADD MSTORE PUSH1 0x24 DUP2 ADD DUP3 SWAP1 MSTORE PUSH32 0x0 PUSH1 0x1 PUSH1 0x1 PUSH1 0xA0 SHL SUB AND SWAP1 PUSH4 0xA9059CBB SWAP1 PUSH1 0x44 ADD PUSH1 0x20 PUSH1 0x40 MLOAD DUP1 DUP4 SUB DUP2 PUSH1 0x0 DUP8 GAS CALL ISZERO DUP1 ISZERO PUSH2 0xC09 JUMPI RETURNDATASIZE PUSH1 0x0 DUP1 RETURNDATACOPY RETURNDATASIZE PUSH1 0x0 REVERT JUMPDEST POP POP POP POP PUSH1 0x40 MLOAD RETURNDATASIZE PUSH1 0x1F NOT PUSH1 0x1F DUP3 ADD AND DUP3 ADD DUP1 PUSH1 0x40 MSTORE POP DUP2 ADD SWAP1 PUSH2 0xC2D SWAP2 SWAP1 PUSH2 0x13FC JUMP JUMPDEST PUSH2 0xC72 JUMPI PUSH1 0x40 MLOAD PUSH3 0x461BCD PUSH1 0xE5 SHL DUP2 MSTORE PUSH1 0x20 PUSH1 0x4 DUP3 ADD MSTORE PUSH1 0x16 PUSH1 0x24 DUP3 ADD MSTORE PUSH22 0x14995DD85C99081D1C985B9CD9995C8819985A5B1959 PUSH1 0x52 SHL PUSH1 0x44 DUP3 ADD MSTORE PUSH1 0x64 ADD PUSH2 0x370 JUMP JUMPDEST PUSH1 0x40 MLOAD DUP2 DUP2 MSTORE CALLER SWAP1 DUP8 SWAP1 PUSH32 0x24B5EFA61DD1CFC659205A97FB8ED868F3CB8C81922BAB2B96423E5DE1DE2CB7 SWAP1 PUSH1 0x20 ADD PUSH1 0x40 MLOAD DUP1 SWAP2 SUB SWAP1 LOG3 POP POP POP POP POP PUSH2 0xCB8 PUSH1 0x1 PUSH1 0x0 SSTORE JUMP JUMPDEST POP JUMP JUMPDEST CALLER PUSH20 0xD87D8E1DEF9CA4A5F1BE181DC37C9ED9622C8D5 EQ PUSH2 0xCEE JUMPI PUSH1 0x40 MLOAD PUSH3 0x461BCD PUSH1 0xE5 SHL DUP2 MSTORE PUSH1 0x4 ADD PUSH2 0x370 SWAP1 PUSH2 0x13AF JUMP JUMPDEST PUSH1 0x0 DUP2 DUP2 MSTORE PUSH1 0x1 PUSH1 0x20 MSTORE PUSH1 0x40 SWAP1 KECCAK256 SLOAD ISZERO PUSH2 0xD39 JUMPI PUSH1 0x40 MLOAD PUSH3 0x461BCD PUSH1 0xE5 SHL DUP2 MSTORE PUSH1 0x20 PUSH1 0x4 DUP3 ADD MSTORE PUSH1 0xC PUSH1 0x24 DUP3 ADD MSTORE PUSH12 0x4D6174636820657869737473 PUSH1 0xA0 SHL PUSH1 0x44 DUP3 ADD MSTORE PUSH1 0x64 ADD PUSH2 0x370 JUMP JUMPDEST PUSH1 0x0 DUP2 DUP2 MSTORE PUSH1 0x1 PUSH1 0x20 DUP2 SWAP1 MSTORE PUSH1 0x40 DUP1 DUP4 KECCAK256 DUP5 DUP2 SSTORE PUSH1 0x2 DUP1 SLOAD SWAP4 DUP5 ADD DUP2 SSTORE DUP5 MSTORE PUSH32 0x405787FA12A823E0F2B7631CC41B3BA8828B3321CA811111FA75CD3AA3BB5ACE SWAP1 SWAP3 ADD DUP5 SWAP1 SSTORE MLOAD SWAP1 SWAP2 DUP4 SWAP2 PUSH32 0x29C42C1AE2EFA2F406E0681E1F940DDE3568CD96A1ECF3715DC1191F0D3EDBC SWAP2 SWAP1 LOG2 POP POP JUMP JUMPDEST PUSH2 0xDB4 PUSH2 0x1297 JUMP JUMPDEST DUP2 PUSH1 0xFF AND PUSH1 0x1 EQ DUP1 PUSH2 0xDC9 JUMPI POP DUP2 PUSH1 0xFF AND PUSH1 0x2 EQ JUMPDEST PUSH2 0xE04 JUMPI PUSH1 0x40 MLOAD PUSH3 0x461BCD PUSH1 0xE5 SHL DUP2 MSTORE PUSH1 0x20 PUSH1 0x4 DUP3 ADD MSTORE PUSH1 0xC PUSH1 0x24 DUP3 ADD MSTORE PUSH12 0x496E76616C6964207465616D PUSH1 0xA0 SHL PUSH1 0x44 DUP3 ADD MSTORE PUSH1 0x64 ADD PUSH2 0x370 JUMP JUMPDEST PUSH8 0xDE0B6B3A7640000 DUP2 LT ISZERO PUSH2 0xE4C JUMPI PUSH1 0x40 MLOAD PUSH3 0x461BCD PUSH1 0xE5 SHL DUP2 MSTORE PUSH1 0x20 PUSH1 0x4 DUP3 ADD MSTORE PUSH1 0xD PUSH1 0x24 DUP3 ADD MSTORE PUSH13 0x10995D081D1BDBC81CDB585B1B PUSH1 0x9A SHL PUSH1 0x44 DUP3 ADD MSTORE PUSH1 0x64 ADD PUSH2 0x370 JUMP JUMPDEST PUSH1 0x0 DUP4 DUP2 MSTORE PUSH1 0x1 PUSH1 0x20 MSTORE PUSH1 0x40 DUP2 KECCAK256 DUP1 SLOAD SWAP1 SWAP2 SUB PUSH2 0xE7B JUMPI PUSH1 0x40 MLOAD PUSH3 0x461BCD PUSH1 0xE5 SHL DUP2 MSTORE PUSH1 0x4 ADD PUSH2 0x370 SWAP1 PUSH2 0x13D3 JUMP JUMPDEST PUSH1 0x4 DUP2 ADD SLOAD PUSH2 0x100 SWAP1 DIV PUSH1 0xFF AND ISZERO PUSH2 0xEC5 JUMPI PUSH1 0x40 MLOAD PUSH3 0x461BCD PUSH1 0xE5 SHL DUP2 MSTORE PUSH1 0x20 PUSH1 0x4 DUP3 ADD MSTORE PUSH1 0xD PUSH1 0x24 DUP3 ADD MSTORE PUSH13 0x13585D18DA081CD95D1D1B1959 PUSH1 0x9A SHL PUSH1 0x44 DUP3 ADD MSTORE PUSH1 0x64 ADD PUSH2 0x370 JUMP JUMPDEST CALLER PUSH1 0x0 SWAP1 DUP2 MSTORE PUSH1 0x5 DUP3 ADD PUSH1 0x20 MSTORE PUSH1 0x40 SWAP1 KECCAK256 PUSH1 0x1 DUP2 ADD SLOAD ISZERO PUSH2 0xF16 JUMPI PUSH1 0x40 MLOAD PUSH3 0x461BCD PUSH1 0xE5 SHL DUP2 MSTORE PUSH1 0x20 PUSH1 0x4 DUP3 ADD MSTORE PUSH1 0xB PUSH1 0x24 DUP3 ADD MSTORE PUSH11 0x105B1C9958591E4818995D PUSH1 0xAA SHL PUSH1 0x44 DUP3 ADD MSTORE PUSH1 0x64 ADD PUSH2 0x370 JUMP JUMPDEST PUSH1 0x40 MLOAD PUSH4 0x23B872DD PUSH1 0xE0 SHL DUP2 MSTORE CALLER PUSH1 0x4 DUP3 ADD MSTORE ADDRESS PUSH1 0x24 DUP3 ADD MSTORE PUSH1 0x44 DUP2 ADD DUP5 SWAP1 MSTORE PUSH32 0x0 PUSH1 0x1 PUSH1 0x1 PUSH1 0xA0 SHL SUB AND SWAP1 PUSH4 0x23B872DD SWAP1 PUSH1 0x64 ADD PUSH1 0x20 PUSH1 0x40 MLOAD DUP1 DUP4 SUB DUP2 PUSH1 0x0 DUP8 GAS CALL ISZERO DUP1 ISZERO PUSH2 0xF89 JUMPI RETURNDATASIZE PUSH1 0x0 DUP1 RETURNDATACOPY RETURNDATASIZE PUSH1 0x0 REVERT JUMPDEST POP POP POP POP PUSH1 0x40 MLOAD RETURNDATASIZE PUSH1 0x1F NOT PUSH1 0x1F DUP3 ADD AND DUP3 ADD DUP1 PUSH1 0x40 MSTORE POP DUP2 ADD SWAP1 PUSH2 0xFAD SWAP2 SWAP1 PUSH2 0x13FC JUMP JUMPDEST PUSH2 0xFC9 JUMPI PUSH1 0x40 MLOAD PUSH3 0x461BCD PUSH1 0xE5 SHL DUP2 MSTORE PUSH1 0x4 ADD PUSH2 0x370 SWAP1 PUSH2 0x1425 JUMP JUMPDEST DUP1 SLOAD PUSH1 0xFF DUP6 AND PUSH1 0xFF NOT SWAP2 DUP3 AND DUP2 OR DUP4 SSTORE PUSH1 0x1 DUP1 DUP5 ADD DUP7 SWAP1 SSTORE PUSH1 0x2 DUP5 ADD DUP1 SLOAD SWAP1 SWAP4 AND SWAP1 SWAP3 SSTORE SWAP1 SUB PUSH2 0x1012 JUMPI DUP3 DUP3 PUSH1 0x1 ADD PUSH1 0x0 DUP3 DUP3 SLOAD PUSH2 0x1007 SWAP2 SWAP1 PUSH2 0x14A3 JUMP JUMPDEST SWAP1 SWAP2 SSTORE POP PUSH2 0x102C SWAP1 POP JUMP JUMPDEST DUP3 DUP3 PUSH1 0x2 ADD PUSH1 0x0 DUP3 DUP3 SLOAD PUSH2 0x1026 SWAP2 SWAP1 PUSH2 0x14A3 JUMP JUMPDEST SWAP1 SWAP2 SSTORE POP POP JUMPDEST PUSH1 0x40 DUP1 MLOAD PUSH1 0xFF DUP7 AND DUP2 MSTORE PUSH1 0x20 DUP2 ADD DUP6 SWAP1 MSTORE CALLER SWAP2 DUP8 SWAP2 PUSH32 0x4F1EED5E863A822B0F9EB960DFDAB2CC5A99BEEC4B191F2A7A9C7E28E5A15524 SWAP2 ADD PUSH1 0x40 MLOAD DUP1 SWAP2 SUB SWAP1 LOG3 POP POP PUSH2 0x1078 PUSH1 0x1 PUSH1 0x0 SSTORE JUMP JUMPDEST POP POP POP JUMP JUMPDEST CALLER PUSH20 0xD87D8E1DEF9CA4A5F1BE181DC37C9ED9622C8D5 EQ PUSH2 0x10B0 JUMPI PUSH1 0x40 MLOAD PUSH3 0x461BCD PUSH1 0xE5 SHL DUP2 MSTORE PUSH1 0x4 ADD PUSH2 0x370 SWAP1 PUSH2 0x13AF JUMP JUMPDEST PUSH2 0x10B8 PUSH2 0x1297 JUMP JUMPDEST PUSH1 0x40 MLOAD PUSH4 0x70A08231 PUSH1 0xE0 SHL DUP2 MSTORE ADDRESS PUSH1 0x4 DUP3 ADD MSTORE PUSH1 0x0 SWAP1 PUSH32 0x0 PUSH1 0x1 PUSH1 0x1 PUSH1 0xA0 SHL SUB AND SWAP1 PUSH4 0x70A08231 SWAP1 PUSH1 0x24 ADD PUSH1 0x20 PUSH1 0x40 MLOAD DUP1 DUP4 SUB DUP2 DUP7 GAS STATICCALL ISZERO DUP1 ISZERO PUSH2 0x111F JUMPI RETURNDATASIZE PUSH1 0x0 DUP1 RETURNDATACOPY RETURNDATASIZE PUSH1 0x0 REVERT JUMPDEST POP POP POP POP PUSH1 0x40 MLOAD RETURNDATASIZE PUSH1 0x1F NOT PUSH1 0x1F DUP3 ADD AND DUP3 ADD DUP1 PUSH1 0x40 MSTORE POP DUP2 ADD SWAP1 PUSH2 0x1143 SWAP2 SWAP1 PUSH2 0x14C9 JUMP JUMPDEST SWAP1 POP PUSH1 0x0 DUP2 GT PUSH2 0x1180 JUMPI PUSH1 0x40 MLOAD PUSH3 0x461BCD PUSH1 0xE5 SHL DUP2 MSTORE PUSH1 0x20 PUSH1 0x4 DUP3 ADD MSTORE PUSH1 0x8 PUSH1 0x24 DUP3 ADD MSTORE PUSH8 0x4E6F2066756E6473 PUSH1 0xC0 SHL PUSH1 0x44 DUP3 ADD MSTORE PUSH1 0x64 ADD PUSH2 0x370 JUMP JUMPDEST PUSH1 0x40 MLOAD PUSH4 0xA9059CBB PUSH1 0xE0 SHL DUP2 MSTORE PUSH20 0xD87D8E1DEF9CA4A5F1BE181DC37C9ED9622C8D5 PUSH1 0x4 DUP3 ADD MSTORE PUSH1 0x24 DUP2 ADD DUP3 SWAP1 MSTORE PUSH32 0x0 PUSH1 0x1 PUSH1 0x1 PUSH1 0xA0 SHL SUB AND SWAP1 PUSH4 0xA9059CBB SWAP1 PUSH1 0x44 ADD PUSH1 0x20 PUSH1 0x40 MLOAD DUP1 DUP4 SUB DUP2 PUSH1 0x0 DUP8 GAS CALL ISZERO DUP1 ISZERO PUSH2 0x1201 JUMPI RETURNDATASIZE PUSH1 0x0 DUP1 RETURNDATACOPY RETURNDATASIZE PUSH1 0x0 REVERT JUMPDEST POP POP POP POP PUSH1 0x40 MLOAD RETURNDATASIZE PUSH1 0x1F NOT PUSH1 0x1F DUP3 ADD AND DUP3 ADD DUP1 PUSH1 0x40 MSTORE POP DUP2 ADD SWAP1 PUSH2 0x1225 SWAP2 SWAP1 PUSH2 0x13FC JUMP JUMPDEST PUSH2 0x1241 JUMPI PUSH1 0x40 MLOAD PUSH3 0x461BCD PUSH1 0xE5 SHL DUP2 MSTORE PUSH1 0x4 ADD PUSH2 0x370 SWAP1 PUSH2 0x1425 JUMP JUMPDEST PUSH1 0x40 MLOAD DUP2 DUP2 MSTORE PUSH20 0xD87D8E1DEF9CA4A5F1BE181DC37C9ED9622C8D5 SWAP1 PUSH32 0x5FAFA99D0643513820BE26656B45130B01E1C03062E1266BF36F88CBD3BD9695 SWAP1 PUSH1 0x20 ADD PUSH1 0x40 MLOAD DUP1 SWAP2 SUB SWAP1 LOG2 POP PUSH2 0x1295 PUSH1 0x1 PUSH1 0x0 SSTORE JUMP JUMPDEST JUMP JUMPDEST PUSH1 0x2 PUSH1 0x0 SLOAD SUB PUSH2 0x12BA JUMPI PUSH1 0x40 MLOAD PUSH4 0x3EE5AEB5 PUSH1 0xE0 SHL DUP2 MSTORE PUSH1 0x4 ADD PUSH1 0x40 MLOAD DUP1 SWAP2 SUB SWAP1 REVERT JUMPDEST PUSH1 0x2 PUSH1 0x0 SSTORE JUMP JUMPDEST PUSH1 0x0 DUP1 PUSH1 0x40 DUP4 DUP6 SUB SLT ISZERO PUSH2 0x12D4 JUMPI PUSH1 0x0 DUP1 REVERT JUMPDEST POP POP DUP1 CALLDATALOAD SWAP3 PUSH1 0x20 SWAP1 SWAP2 ADD CALLDATALOAD SWAP2 POP JUMP JUMPDEST PUSH1 0x0 PUSH1 0x20 DUP3 DUP5 SUB SLT ISZERO PUSH2 0x12F5 JUMPI PUSH1 0x0 DUP1 REVERT JUMPDEST POP CALLDATALOAD SWAP2 SWAP1 POP JUMP JUMPDEST DUP1 CALLDATALOAD PUSH1 0xFF DUP2 AND DUP2 EQ PUSH2 0x130D JUMPI PUSH1 0x0 DUP1 REVERT JUMPDEST SWAP2 SWAP1 POP JUMP JUMPDEST PUSH1 0x0 DUP1 PUSH1 0x40 DUP4 DUP6 SUB SLT ISZERO PUSH2 0x1325 JUMPI PUSH1 0x0 DUP1 REVERT JUMPDEST DUP3 CALLDATALOAD SWAP2 POP PUSH2 0x1335 PUSH1 0x20 DUP5 ADD PUSH2 0x12FC JUMP JUMPDEST SWAP1 POP SWAP3 POP SWAP3 SWAP1 POP JUMP JUMPDEST PUSH1 0x0 DUP1 PUSH1 0x40 DUP4 DUP6 SUB SLT ISZERO PUSH2 0x1351 JUMPI PUSH1 0x0 DUP1 REVERT JUMPDEST DUP3 CALLDATALOAD SWAP2 POP PUSH1 0x20 DUP4 ADD CALLDATALOAD PUSH1 0x1 PUSH1 0x1 PUSH1 0xA0 SHL SUB DUP2 AND DUP2 EQ PUSH2 0x136F JUMPI PUSH1 0x0 DUP1 REVERT JUMPDEST DUP1 SWAP2 POP POP SWAP3 POP SWAP3 SWAP1 POP JUMP JUMPDEST PUSH1 0x0 DUP1 PUSH1 0x0 PUSH1 0x60 DUP5 DUP7 SUB SLT ISZERO PUSH2 0x138F JUMPI PUSH1 0x0 DUP1 REVERT JUMPDEST DUP4 CALLDATALOAD SWAP3 POP PUSH2 0x139F PUSH1 0x20 DUP6 ADD PUSH2 0x12FC JUMP JUMPDEST SWAP2 POP PUSH1 0x40 DUP5 ADD CALLDATALOAD SWAP1 POP SWAP3 POP SWAP3 POP SWAP3 JUMP JUMPDEST PUSH1 0x20 DUP1 DUP3 MSTORE PUSH1 0xA SWAP1 DUP3 ADD MSTORE PUSH10 0x27B7363C9030B236B4B7 PUSH1 0xB1 SHL PUSH1 0x40 DUP3 ADD MSTORE PUSH1 0x60 ADD SWAP1 JUMP JUMPDEST PUSH1 0x20 DUP1 DUP3 MSTORE PUSH1 0xF SWAP1 DUP3 ADD MSTORE PUSH15 0x13585D18DA081B9BDD08195E1A5CDD PUSH1 0x8A SHL PUSH1 0x40 DUP3 ADD MSTORE PUSH1 0x60 ADD SWAP1 JUMP JUMPDEST PUSH1 0x0 PUSH1 0x20 DUP3 DUP5 SUB SLT ISZERO PUSH2 0x140E JUMPI PUSH1 0x0 DUP1 REVERT JUMPDEST DUP2 MLOAD DUP1 ISZERO ISZERO DUP2 EQ PUSH2 0x141E JUMPI PUSH1 0x0 DUP1 REVERT JUMPDEST SWAP4 SWAP3 POP POP POP JUMP JUMPDEST PUSH1 0x20 DUP1 DUP3 MSTORE PUSH1 0xF SWAP1 DUP3 ADD MSTORE PUSH15 0x151C985B9CD9995C8819985A5B1959 PUSH1 0x8A SHL PUSH1 0x40 DUP3 ADD MSTORE PUSH1 0x60 ADD SWAP1 JUMP JUMPDEST PUSH4 0x4E487B71 PUSH1 0xE0 SHL PUSH1 0x0 MSTORE PUSH1 0x11 PUSH1 0x4 MSTORE PUSH1 0x24 PUSH1 0x0 REVERT JUMPDEST DUP1 DUP3 MUL DUP2 ISZERO DUP3 DUP3 DIV DUP5 EQ OR PUSH2 0x147B JUMPI PUSH2 0x147B PUSH2 0x144E JUMP JUMPDEST SWAP3 SWAP2 POP POP JUMP JUMPDEST PUSH1 0x0 DUP3 PUSH2 0x149E JUMPI PUSH4 0x4E487B71 PUSH1 0xE0 SHL PUSH1 0x0 MSTORE PUSH1 0x12 PUSH1 0x4 MSTORE PUSH1 0x24 PUSH1 0x0 REVERT JUMPDEST POP DIV SWAP1 JUMP JUMPDEST DUP1 DUP3 ADD DUP1 DUP3 GT ISZERO PUSH2 0x147B JUMPI PUSH2 0x147B PUSH2 0x144E JUMP JUMPDEST DUP2 DUP2 SUB DUP2 DUP2 GT ISZERO PUSH2 0x147B JUMPI PUSH2 0x147B PUSH2 0x144E JUMP JUMPDEST PUSH1 0x0 PUSH1 0x20 DUP3 DUP5 SUB SLT ISZERO PUSH2 0x14DB JUMPI PUSH1 0x0 DUP1 REVERT JUMPDEST POP MLOAD SWAP2 SWAP1 POP JUMP INVALID LOG2 PUSH5 0x6970667358 0x22 SLT KECCAK256 0xC STATICCALL 0xEE DUP9 0xB7 0xBF SIGNEXTEND RETURNDATACOPY 0xD6 GASPRICE SHR 0xA5 LOG2 0x4F 0xBD 0xF8 GASPRICE 0xED SELFBALANCE 0xB2 0xDE 0xC6 SWAP12 BASEFEE 0xB3 STATICCALL DUP13 PUSH22 0x924B093B64736F6C6343000814003300000000000000 "},"methodIdentifiers":{"ADMIN()":"2a0acc6a","CHZ()":"8e416c93","LOSER_RATIO()":"cfa47501","MIN_BET()":"6540742f","PLATFORM_FEE_PERCENT()":"560d52d4","RATIO_BASE()":"c11a5630","WINNER_RATIO()":"473cc0e3","claimReward(uint256)":"ae169a50","createMatch(uint256)":"b67a88f9","emergencyWithdraw()":"db2e21bc","getMatch(uint256)":"3d092b3d","getUserBet(uint256,address)":"c03fb87c","injectReward(uint256,uint256)":"097cd232","matchIds(uint256)":"36ff6a70","placeBet(uint256,uint8,uint256)":"da866c48","resetMatch(uint256)":"67ac4711","settleMatch(uint256,uint8)":"a09d0dce"}}}}}